{"contracts/DocumentVerification.sol":{"DocumentVerification":{"abi":[{"anonymous":false,"inputs":[{"indexed":true,"internalType":"bytes32","name":"documentId","type":"bytes32"},{"indexed":true,"internalType":"address","name":"verifier","type":"address"}],"name":"DocumentRejected","type":"event"},{"anonymous":false,"inputs":[{"indexed":true,"internalType":"bytes32","name":"documentId","type":"bytes32"},{"indexed":true,"internalType":"address","name":"owner","type":"address"}],"name":"DocumentUploaded","type":"event"},{"anonymous":false,"inputs":[{"indexed":true,"internalType":"bytes32","name":"documentId","type":"bytes32"},{"indexed":true,"internalType":"address","name":"verifier","type":"address"}],"name":"DocumentVerified","type":"event"},{"inputs":[{"internalType":"bytes32","name":"","type":"bytes32"}],"name":"documents","outputs":[{"internalType":"bytes32","name":"documentHash","type":"bytes32"},{"internalType":"address","name":"owner","type":"address"},{"internalType":"uint256","name":"timestamp","type":"uint256"},{"internalType":"bool","name":"isVerified","type":"bool"},{"internalType":"address","name":"verifiedBy","type":"address"}],"stateMutability":"view","type":"function"},{"inputs":[{"internalType":"bytes32","name":"_documentHash","type":"bytes32"}],"name":"getDocumentDetails","outputs":[{"internalType":"address","name":"owner","type":"address"},{"internalType":"uint256","name":"timestamp","type":"uint256"},{"internalType":"bool","name":"isVerified","type":"bool"},{"internalType":"address","name":"verifiedBy","type":"address"}],"stateMutability":"view","type":"function"},{"inputs":[{"internalType":"address","name":"_user","type":"address"}],"name":"getUserDocuments","outputs":[{"internalType":"bytes32[]","name":"","type":"bytes32[]"}],"stateMutability":"view","type":"function"},{"inputs":[{"internalType":"bytes32","name":"_documentHash","type":"bytes32"}],"name":"isDocumentVerified","outputs":[{"internalType":"bool","name":"","type":"bool"}],"stateMutability":"view","type":"function"},{"inputs":[{"internalType":"bytes32","name":"_documentHash","type":"bytes32"}],"name":"rejectDocument","outputs":[],"stateMutability":"nonpayable","type":"function"},{"inputs":[{"internalType":"bytes32","name":"_documentHash","type":"bytes32"}],"name":"uploadDocument","outputs":[],"stateMutability":"nonpayable","type":"function"},{"inputs":[{"internalType":"address","name":"","type":"address"},{"internalType":"uint256","name":"","type":"uint256"}],"name":"userDocuments","outputs":[{"internalType":"bytes32","name":"","type":"bytes32"}],"stateMutability":"view","type":"function"},{"inputs":[{"internalType":"bytes32","name":"_documentHash","type":"bytes32"}],"name":"verifyDocument","outputs":[],"stateMutability":"nonpayable","type":"function"}],"evm":{"bytecode":{"linkReferences":{},"object":"608060405234801561001057600080fd5b50610805806100206000396000f3fe608060405234801561001057600080fd5b50600436106100885760003560e01c80638e4d0f401161005b5780638e4d0f401461015957806390a4b162146101d5578063e5dcfd80146101f5578063fe35089f1461022b57600080fd5b80632b2805db1461008d578063335039d614610110578063577a1b92146101255780636efb635514610146575b600080fd5b6100d961009b36600461070a565b600060208190529081526040902080546001820154600283015460039093015491926001600160a01b0391821692909160ff82169161010090041685565b604080519586526001600160a01b0394851660208701528501929092521515606084015216608082015260a0015b60405180910390f35b61012361011e36600461070a565b61023e565b005b61013861013336600461073f565b61039d565b604051908152602001610107565b61012361015436600461070a565b6103ce565b6101a261016736600461070a565b6000908152602081905260409020600181015460028201546003909201546001600160a01b039182169360ff82169261010090920490911690565b604080516001600160a01b0395861681526020810194909452911515918301919091529091166060820152608001610107565b6101e86101e3366004610769565b610517565b604051610107919061078b565b61021b61020336600461070a565b60009081526020819052604090206003015460ff1690565b6040519015158152602001610107565b61012361023936600461070a565b610583565b6000818152602081905260409020600101546001600160a01b03166102a45760405162461bcd60e51b8152602060048201526017602482015276111bd8dd5b595b9d08191bd95cc81b9bdd08195e1a5cdd604a1b60448201526064015b60405180910390fd5b60008181526020819052604090206003015460ff16156103025760405162461bcd60e51b8152602060048201526019602482015278111bd8dd5b595b9d08185b1c9958591e481d995c9a599a5959603a1b604482015260640161029b565b600081815260208190526040902060010154336001600160a01b039091160361036d5760405162461bcd60e51b815260206004820152601a60248201527f43616e6e6f742072656a656374206f776e20646f63756d656e74000000000000604482015260640161029b565b604051339082907f5c990a7eaaa76d7a78a23b93cb36d7eb7754b02c053e009339bdb518b37c364c90600090a350565b600160205281600052604060002081815481106103b957600080fd5b90600052602060002001600091509150505481565b6000818152602081905260409020600101546001600160a01b0316156104365760405162461bcd60e51b815260206004820152601760248201527f446f63756d656e7420616c726561647920657869737473000000000000000000604482015260640161029b565b6040805160a0810182528281523360208083018281524284860190815260006060860181815260808701828152898352828652888320975188559351600188810180546001600160a01b039384166001600160a01b031990911617905593516002890155905160039097018054945190911661010002610100600160a81b0319971515979097166001600160a81b0319909416939093179590951790915582845280825284842080549182018155845290832001849055915183917ff068cd8886f41c77384e104a2ee1694e6a0bdd25a7a80b751155a0e43545185091a350565b6001600160a01b03811660009081526001602090815260409182902080548351818402810184019094528084526060939283018282801561057757602002820191906000526020600020905b815481526020019060010190808311610563575b50505050509050919050565b6000818152602081905260409020600101546001600160a01b03166105e45760405162461bcd60e51b8152602060048201526017602482015276111bd8dd5b595b9d08191bd95cc81b9bdd08195e1a5cdd604a1b604482015260640161029b565b60008181526020819052604090206003015460ff16156106425760405162461bcd60e51b8152602060048201526019602482015278111bd8dd5b595b9d08185b1c9958591e481d995c9a599a5959603a1b604482015260640161029b565b600081815260208190526040902060010154336001600160a01b03909116036106ad5760405162461bcd60e51b815260206004820152601a60248201527f43616e6e6f7420766572696679206f776e20646f63756d656e74000000000000604482015260640161029b565b60008181526020819052604080822060030180543361010081026001600160a81b0319909216919091176001179091559051909183917f536e3e5b353ccc73d28014bd5d2ff03ced4b84fa024148b4949000af72f0a2549190a350565b60006020828403121561071c57600080fd5b5035919050565b80356001600160a01b038116811461073a57600080fd5b919050565b6000806040838503121561075257600080fd5b61075b83610723565b946020939093013593505050565b60006020828403121561077b57600080fd5b61078482610723565b9392505050565b6020808252825182820181905260009190848201906040850190845b818110156107c3578351835292840192918401916001016107a7565b5090969550505050505056fea2646970667358221220e1c06953a734fba49c66d8ac461abf1a1a2aaead123f59f5113c824a1ec625d364736f6c63430008140033","opcodes":"PUSH1 0x80 PUSH1 0x40 MSTORE CALLVALUE DUP1 ISZERO PUSH2 0x10 JUMPI PUSH1 0x0 DUP1 REVERT JUMPDEST POP PUSH2 0x805 DUP1 PUSH2 0x20 PUSH1 0x0 CODECOPY PUSH1 0x0 RETURN INVALID PUSH1 0x80 PUSH1 0x40 MSTORE CALLVALUE DUP1 ISZERO PUSH2 0x10 JUMPI PUSH1 0x0 DUP1 REVERT JUMPDEST POP PUSH1 0x4 CALLDATASIZE LT PUSH2 0x88 JUMPI PUSH1 0x0 CALLDATALOAD PUSH1 0xE0 SHR DUP1 PUSH4 0x8E4D0F40 GT PUSH2 0x5B JUMPI DUP1 PUSH4 0x8E4D0F40 EQ PUSH2 0x159 JUMPI DUP1 PUSH4 0x90A4B162 EQ PUSH2 0x1D5 JUMPI DUP1 PUSH4 0xE5DCFD80 EQ PUSH2 0x1F5 JUMPI DUP1 PUSH4 0xFE35089F EQ PUSH2 0x22B JUMPI PUSH1 0x0 DUP1 REVERT JUMPDEST DUP1 PUSH4 0x2B2805DB EQ PUSH2 0x8D JUMPI DUP1 PUSH4 0x335039D6 EQ PUSH2 0x110 JUMPI DUP1 PUSH4 0x577A1B92 EQ PUSH2 0x125 JUMPI DUP1 PUSH4 0x6EFB6355 EQ PUSH2 0x146 JUMPI JUMPDEST PUSH1 0x0 DUP1 REVERT JUMPDEST PUSH2 0xD9 PUSH2 0x9B CALLDATASIZE PUSH1 0x4 PUSH2 0x70A JUMP JUMPDEST PUSH1 0x0 PUSH1 0x20 DUP2 SWAP1 MSTORE SWAP1 DUP2 MSTORE PUSH1 0x40 SWAP1 KECCAK256 DUP1 SLOAD PUSH1 0x1 DUP3 ADD SLOAD PUSH1 0x2 DUP4 ADD SLOAD PUSH1 0x3 SWAP1 SWAP4 ADD SLOAD SWAP2 SWAP3 PUSH1 0x1 PUSH1 0x1 PUSH1 0xA0 SHL SUB SWAP2 DUP3 AND SWAP3 SWAP1 SWAP2 PUSH1 0xFF DUP3 AND SWAP2 PUSH2 0x100 SWAP1 DIV AND DUP6 JUMP JUMPDEST PUSH1 0x40 DUP1 MLOAD SWAP6 DUP7 MSTORE PUSH1 0x1 PUSH1 0x1 PUSH1 0xA0 SHL SUB SWAP5 DUP6 AND PUSH1 0x20 DUP8 ADD MSTORE DUP6 ADD SWAP3 SWAP1 SWAP3 MSTORE ISZERO ISZERO PUSH1 0x60 DUP5 ADD MSTORE AND PUSH1 0x80 DUP3 ADD MSTORE PUSH1 0xA0 ADD JUMPDEST PUSH1 0x40 MLOAD DUP1 SWAP2 SUB SWAP1 RETURN JUMPDEST PUSH2 0x123 PUSH2 0x11E CALLDATASIZE PUSH1 0x4 PUSH2 0x70A JUMP JUMPDEST PUSH2 0x23E JUMP JUMPDEST STOP JUMPDEST PUSH2 0x138 PUSH2 0x133 CALLDATASIZE PUSH1 0x4 PUSH2 0x73F JUMP JUMPDEST PUSH2 0x39D JUMP JUMPDEST PUSH1 0x40 MLOAD SWAP1 DUP2 MSTORE PUSH1 0x20 ADD PUSH2 0x107 JUMP JUMPDEST PUSH2 0x123 PUSH2 0x154 CALLDATASIZE PUSH1 0x4 PUSH2 0x70A JUMP JUMPDEST PUSH2 0x3CE JUMP JUMPDEST PUSH2 0x1A2 PUSH2 0x167 CALLDATASIZE PUSH1 0x4 PUSH2 0x70A JUMP JUMPDEST PUSH1 0x0 SWAP1 DUP2 MSTORE PUSH1 0x20 DUP2 SWAP1 MSTORE PUSH1 0x40 SWAP1 KECCAK256 PUSH1 0x1 DUP2 ADD SLOAD PUSH1 0x2 DUP3 ADD SLOAD PUSH1 0x3 SWAP1 SWAP3 ADD SLOAD PUSH1 0x1 PUSH1 0x1 PUSH1 0xA0 SHL SUB SWAP2 DUP3 AND SWAP4 PUSH1 0xFF DUP3 AND SWAP3 PUSH2 0x100 SWAP1 SWAP3 DIV SWAP1 SWAP2 AND SWAP1 JUMP JUMPDEST PUSH1 0x40 DUP1 MLOAD PUSH1 0x1 PUSH1 0x1 PUSH1 0xA0 SHL SUB SWAP6 DUP7 AND DUP2 MSTORE PUSH1 0x20 DUP2 ADD SWAP5 SWAP1 SWAP5 MSTORE SWAP2 ISZERO ISZERO SWAP2 DUP4 ADD SWAP2 SWAP1 SWAP2 MSTORE SWAP1 SWAP2 AND PUSH1 0x60 DUP3 ADD MSTORE PUSH1 0x80 ADD PUSH2 0x107 JUMP JUMPDEST PUSH2 0x1E8 PUSH2 0x1E3 CALLDATASIZE PUSH1 0x4 PUSH2 0x769 JUMP JUMPDEST PUSH2 0x517 JUMP JUMPDEST PUSH1 0x40 MLOAD PUSH2 0x107 SWAP2 SWAP1 PUSH2 0x78B JUMP JUMPDEST PUSH2 0x21B PUSH2 0x203 CALLDATASIZE PUSH1 0x4 PUSH2 0x70A JUMP JUMPDEST PUSH1 0x0 SWAP1 DUP2 MSTORE PUSH1 0x20 DUP2 SWAP1 MSTORE PUSH1 0x40 SWAP1 KECCAK256 PUSH1 0x3 ADD SLOAD PUSH1 0xFF AND SWAP1 JUMP JUMPDEST PUSH1 0x40 MLOAD SWAP1 ISZERO ISZERO DUP2 MSTORE PUSH1 0x20 ADD PUSH2 0x107 JUMP JUMPDEST PUSH2 0x123 PUSH2 0x239 CALLDATASIZE PUSH1 0x4 PUSH2 0x70A JUMP JUMPDEST PUSH2 0x583 JUMP JUMPDEST PUSH1 0x0 DUP2 DUP2 MSTORE PUSH1 0x20 DUP2 SWAP1 MSTORE PUSH1 0x40 SWAP1 KECCAK256 PUSH1 0x1 ADD SLOAD PUSH1 0x1 PUSH1 0x1 PUSH1 0xA0 SHL SUB AND PUSH2 0x2A4 JUMPI PUSH1 0x40 MLOAD PUSH3 0x461BCD PUSH1 0xE5 SHL DUP2 MSTORE PUSH1 0x20 PUSH1 0x4 DUP3 ADD MSTORE PUSH1 0x17 PUSH1 0x24 DUP3 ADD MSTORE PUSH23 0x111BD8DD5B595B9D08191BD95CC81B9BDD08195E1A5CDD PUSH1 0x4A SHL PUSH1 0x44 DUP3 ADD MSTORE PUSH1 0x64 ADD JUMPDEST PUSH1 0x40 MLOAD DUP1 SWAP2 SUB SWAP1 REVERT JUMPDEST PUSH1 0x0 DUP2 DUP2 MSTORE PUSH1 0x20 DUP2 SWAP1 MSTORE PUSH1 0x40 SWAP1 KECCAK256 PUSH1 0x3 ADD SLOAD PUSH1 0xFF AND ISZERO PUSH2 0x302 JUMPI PUSH1 0x40 MLOAD PUSH3 0x461BCD PUSH1 0xE5 SHL DUP2 MSTORE PUSH1 0x20 PUSH1 0x4 DUP3 ADD MSTORE PUSH1 0x19 PUSH1 0x24 DUP3 ADD MSTORE PUSH25 0x111BD8DD5B595B9D08185B1C9958591E481D995C9A599A5959 PUSH1 0x3A SHL PUSH1 0x44 DUP3 ADD MSTORE PUSH1 0x64 ADD PUSH2 0x29B JUMP JUMPDEST PUSH1 0x0 DUP2 DUP2 MSTORE PUSH1 0x20 DUP2 SWAP1 MSTORE PUSH1 0x40 SWAP1 KECCAK256 PUSH1 0x1 ADD SLOAD CALLER PUSH1 0x1 PUSH1 0x1 PUSH1 0xA0 SHL SUB SWAP1 SWAP2 AND SUB PUSH2 0x36D JUMPI PUSH1 0x40 MLOAD PUSH3 0x461BCD PUSH1 0xE5 SHL DUP2 MSTORE PUSH1 0x20 PUSH1 0x4 DUP3 ADD MSTORE PUSH1 0x1A PUSH1 0x24 DUP3 ADD MSTORE PUSH32 0x43616E6E6F742072656A656374206F776E20646F63756D656E74000000000000 PUSH1 0x44 DUP3 ADD MSTORE PUSH1 0x64 ADD PUSH2 0x29B JUMP JUMPDEST PUSH1 0x40 MLOAD CALLER SWAP1 DUP3 SWAP1 PUSH32 0x5C990A7EAAA76D7A78A23B93CB36D7EB7754B02C053E009339BDB518B37C364C SWAP1 PUSH1 0x0 SWAP1 LOG3 POP JUMP JUMPDEST PUSH1 0x1 PUSH1 0x20 MSTORE DUP2 PUSH1 0x0 MSTORE PUSH1 0x40 PUSH1 0x0 KECCAK256 DUP2 DUP2 SLOAD DUP2 LT PUSH2 0x3B9 JUMPI PUSH1 0x0 DUP1 REVERT JUMPDEST SWAP1 PUSH1 0x0 MSTORE PUSH1 0x20 PUSH1 0x0 KECCAK256 ADD PUSH1 0x0 SWAP2 POP SWAP2 POP POP SLOAD DUP2 JUMP JUMPDEST PUSH1 0x0 DUP2 DUP2 MSTORE PUSH1 0x20 DUP2 SWAP1 MSTORE PUSH1 0x40 SWAP1 KECCAK256 PUSH1 0x1 ADD SLOAD PUSH1 0x1 PUSH1 0x1 PUSH1 0xA0 SHL SUB AND ISZERO PUSH2 0x436 JUMPI PUSH1 0x40 MLOAD PUSH3 0x461BCD PUSH1 0xE5 SHL DUP2 MSTORE PUSH1 0x20 PUSH1 0x4 DUP3 ADD MSTORE PUSH1 0x17 PUSH1 0x24 DUP3 ADD MSTORE PUSH32 0x446F63756D656E7420616C726561647920657869737473000000000000000000 PUSH1 0x44 DUP3 ADD MSTORE PUSH1 0x64 ADD PUSH2 0x29B JUMP JUMPDEST PUSH1 0x40 DUP1 MLOAD PUSH1 0xA0 DUP2 ADD DUP3 MSTORE DUP3 DUP2 MSTORE CALLER PUSH1 0x20 DUP1 DUP4 ADD DUP3 DUP2 MSTORE TIMESTAMP DUP5 DUP7 ADD SWAP1 DUP2 MSTORE PUSH1 0x0 PUSH1 0x60 DUP7 ADD DUP2 DUP2 MSTORE PUSH1 0x80 DUP8 ADD DUP3 DUP2 MSTORE DUP10 DUP4 MSTORE DUP3 DUP7 MSTORE DUP9 DUP4 KECCAK256 SWAP8 MLOAD DUP9 SSTORE SWAP4 MLOAD PUSH1 0x1 DUP9 DUP2 ADD DUP1 SLOAD PUSH1 0x1 PUSH1 0x1 PUSH1 0xA0 SHL SUB SWAP4 DUP5 AND PUSH1 0x1 PUSH1 0x1 PUSH1 0xA0 SHL SUB NOT SWAP1 SWAP2 AND OR SWAP1 SSTORE SWAP4 MLOAD PUSH1 0x2 DUP10 ADD SSTORE SWAP1 MLOAD PUSH1 0x3 SWAP1 SWAP8 ADD DUP1 SLOAD SWAP5 MLOAD SWAP1 SWAP2 AND PUSH2 0x100 MUL PUSH2 0x100 PUSH1 0x1 PUSH1 0xA8 SHL SUB NOT SWAP8 ISZERO ISZERO SWAP8 SWAP1 SWAP8 AND PUSH1 0x1 PUSH1 0x1 PUSH1 0xA8 SHL SUB NOT SWAP1 SWAP5 AND SWAP4 SWAP1 SWAP4 OR SWAP6 SWAP1 SWAP6 OR SWAP1 SWAP2 SSTORE DUP3 DUP5 MSTORE DUP1 DUP3 MSTORE DUP5 DUP5 KECCAK256 DUP1 SLOAD SWAP2 DUP3 ADD DUP2 SSTORE DUP5 MSTORE SWAP1 DUP4 KECCAK256 ADD DUP5 SWAP1 SSTORE SWAP2 MLOAD DUP4 SWAP2 PUSH32 0xF068CD8886F41C77384E104A2EE1694E6A0BDD25A7A80B751155A0E435451850 SWAP2 LOG3 POP JUMP JUMPDEST PUSH1 0x1 PUSH1 0x1 PUSH1 0xA0 SHL SUB DUP2 AND PUSH1 0x0 SWAP1 DUP2 MSTORE PUSH1 0x1 PUSH1 0x20 SWAP1 DUP2 MSTORE PUSH1 0x40 SWAP2 DUP3 SWAP1 KECCAK256 DUP1 SLOAD DUP4 MLOAD DUP2 DUP5 MUL DUP2 ADD DUP5 ADD SWAP1 SWAP5 MSTORE DUP1 DUP5 MSTORE PUSH1 0x60 SWAP4 SWAP3 DUP4 ADD DUP3 DUP3 DUP1 ISZERO PUSH2 0x577 JUMPI PUSH1 0x20 MUL DUP3 ADD SWAP2 SWAP1 PUSH1 0x0 MSTORE PUSH1 0x20 PUSH1 0x0 KECCAK256 SWAP1 JUMPDEST DUP2 SLOAD DUP2 MSTORE PUSH1 0x20 ADD SWAP1 PUSH1 0x1 ADD SWAP1 DUP1 DUP4 GT PUSH2 0x563 JUMPI JUMPDEST POP POP POP POP POP SWAP1 POP SWAP2 SWAP1 POP JUMP JUMPDEST PUSH1 0x0 DUP2 DUP2 MSTORE PUSH1 0x20 DUP2 SWAP1 MSTORE PUSH1 0x40 SWAP1 KECCAK256 PUSH1 0x1 ADD SLOAD PUSH1 0x1 PUSH1 0x1 PUSH1 0xA0 SHL SUB AND PUSH2 0x5E4 JUMPI PUSH1 0x40 MLOAD PUSH3 0x461BCD PUSH1 0xE5 SHL DUP2 MSTORE PUSH1 0x20 PUSH1 0x4 DUP3 ADD MSTORE PUSH1 0x17 PUSH1 0x24 DUP3 ADD MSTORE PUSH23 0x111BD8DD5B595B9D08191BD95CC81B9BDD08195E1A5CDD PUSH1 0x4A SHL PUSH1 0x44 DUP3 ADD MSTORE PUSH1 0x64 ADD PUSH2 0x29B JUMP JUMPDEST PUSH1 0x0 DUP2 DUP2 MSTORE PUSH1 0x20 DUP2 SWAP1 MSTORE PUSH1 0x40 SWAP1 KECCAK256 PUSH1 0x3 ADD SLOAD PUSH1 0xFF AND ISZERO PUSH2 0x642 JUMPI PUSH1 0x40 MLOAD PUSH3 0x461BCD PUSH1 0xE5 SHL DUP2 MSTORE PUSH1 0x20 PUSH1 0x4 DUP3 ADD MSTORE PUSH1 0x19 PUSH1 0x24 DUP3 ADD MSTORE PUSH25 0x111BD8DD5B595B9D08185B1C9958591E481D995C9A599A5959 PUSH1 0x3A SHL PUSH1 0x44 DUP3 ADD MSTORE PUSH1 0x64 ADD PUSH2 0x29B JUMP JUMPDEST PUSH1 0x0 DUP2 DUP2 MSTORE PUSH1 0x20 DUP2 SWAP1 MSTORE PUSH1 0x40 SWAP1 KECCAK256 PUSH1 0x1 ADD SLOAD CALLER PUSH1 0x1 PUSH1 0x1 PUSH1 0xA0 SHL SUB SWAP1 SWAP2 AND SUB PUSH2 0x6AD JUMPI PUSH1 0x40 MLOAD PUSH3 0x461BCD PUSH1 0xE5 SHL DUP2 MSTORE PUSH1 0x20 PUSH1 0x4 DUP3 ADD MSTORE PUSH1 0x1A PUSH1 0x24 DUP3 ADD MSTORE PUSH32 0x43616E6E6F7420766572696679206F776E20646F63756D656E74000000000000 PUSH1 0x44 DUP3 ADD MSTORE PUSH1 0x64 ADD PUSH2 0x29B JUMP JUMPDEST PUSH1 0x0 DUP2 DUP2 MSTORE PUSH1 0x20 DUP2 SWAP1 MSTORE PUSH1 0x40 DUP1 DUP3 KECCAK256 PUSH1 0x3 ADD DUP1 SLOAD CALLER PUSH2 0x100 DUP2 MUL PUSH1 0x1 PUSH1 0x1 PUSH1 0xA8 SHL SUB NOT SWAP1 SWAP3 AND SWAP2 SWAP1 SWAP2 OR PUSH1 0x1 OR SWAP1 SWAP2 SSTORE SWAP1 MLOAD SWAP1 SWAP2 DUP4 SWAP2 PUSH32 0x536E3E5B353CCC73D28014BD5D2FF03CED4B84FA024148B4949000AF72F0A254 SWAP2 SWAP1 LOG3 POP JUMP JUMPDEST PUSH1 0x0 PUSH1 0x20 DUP3 DUP5 SUB SLT ISZERO PUSH2 0x71C JUMPI PUSH1 0x0 DUP1 REVERT JUMPDEST POP CALLDATALOAD SWAP2 SWAP1 POP JUMP JUMPDEST DUP1 CALLDATALOAD PUSH1 0x1 PUSH1 0x1 PUSH1 0xA0 SHL SUB DUP2 AND DUP2 EQ PUSH2 0x73A JUMPI PUSH1 0x0 DUP1 REVERT JUMPDEST SWAP2 SWAP1 POP JUMP JUMPDEST PUSH1 0x0 DUP1 PUSH1 0x40 DUP4 DUP6 SUB SLT ISZERO PUSH2 0x752 JUMPI PUSH1 0x0 DUP1 REVERT JUMPDEST PUSH2 0x75B DUP4 PUSH2 0x723 JUMP JUMPDEST SWAP5 PUSH1 0x20 SWAP4 SWAP1 SWAP4 ADD CALLDATALOAD SWAP4 POP POP POP JUMP JUMPDEST PUSH1 0x0 PUSH1 0x20 DUP3 DUP5 SUB SLT ISZERO PUSH2 0x77B JUMPI PUSH1 0x0 DUP1 REVERT JUMPDEST PUSH2 0x784 DUP3 PUSH2 0x723 JUMP JUMPDEST SWAP4 SWAP3 POP POP POP JUMP JUMPDEST PUSH1 0x20 DUP1 DUP3 MSTORE DUP3 MLOAD DUP3 DUP3 ADD DUP2 SWAP1 MSTORE PUSH1 0x0 SWAP2 SWAP1 DUP5 DUP3 ADD SWAP1 PUSH1 0x40 DUP6 ADD SWAP1 DUP5 JUMPDEST DUP2 DUP2 LT ISZERO PUSH2 0x7C3 JUMPI DUP4 MLOAD DUP4 MSTORE SWAP3 DUP5 ADD SWAP3 SWAP2 DUP5 ADD SWAP2 PUSH1 0x1 ADD PUSH2 0x7A7 JUMP JUMPDEST POP SWAP1 SWAP7 SWAP6 POP POP POP POP POP POP JUMP INVALID LOG2 PUSH5 0x6970667358 0x22 SLT KECCAK256 0xE1 0xC0 PUSH10 0x53A734FBA49C66D8AC46 BYTE 0xBF BYTE BYTE 0x2A 0xAE 0xAD SLT EXTCODEHASH MSIZE CREATE2 GT EXTCODECOPY DUP3 0x4A 0x1E 0xC6 0x25 0xD3 PUSH5 0x736F6C6343 STOP ADDMOD EQ STOP CALLER "},"methodIdentifiers":{"documents(bytes32)":"2b2805db","getDocumentDetails(bytes32)":"8e4d0f40","getUserDocuments(address)":"90a4b162","isDocumentVerified(bytes32)":"e5dcfd80","rejectDocument(bytes32)":"335039d6","uploadDocument(bytes32)":"6efb6355","userDocuments(address,uint256)":"577a1b92","verifyDocument(bytes32)":"fe35089f"}}}}}