{"contracts/EligibilityVerification.sol":{"EligibilityVerification":{"abi":[{"anonymous":false,"inputs":[{"indexed":true,"internalType":"bytes32","name":"schemeId","type":"bytes32"}],"name":"CriteriaSet","type":"event"},{"anonymous":false,"inputs":[{"indexed":true,"internalType":"address","name":"user","type":"address"}],"name":"ProfileCreated","type":"event"},{"anonymous":false,"inputs":[{"indexed":true,"internalType":"address","name":"user","type":"address"}],"name":"ProfileUpdated","type":"event"},{"anonymous":false,"inputs":[{"indexed":true,"internalType":"address","name":"user","type":"address"},{"indexed":true,"internalType":"address","name":"verifier","type":"address"}],"name":"ProfileVerified","type":"event"},{"inputs":[{"internalType":"bytes32","name":"_schemeId","type":"bytes32"},{"internalType":"address","name":"_user","type":"address"}],"name":"checkEligibility","outputs":[{"internalType":"bool","name":"","type":"bool"}],"stateMutability":"view","type":"function"},{"inputs":[{"internalType":"uint256","name":"_age","type":"uint256"},{"internalType":"uint256","name":"_income","type":"uint256"},{"internalType":"bool","name":"_isRural","type":"bool"},{"internalType":"bool","name":"_isBPL","type":"bool"},{"internalType":"bool","name":"_isFarmer","type":"bool"},{"internalType":"bool","name":"_isWoman","type":"bool"},{"internalType":"bool","name":"_isSeniorCitizen","type":"bool"},{"internalType":"bool","name":"_isDisabled","type":"bool"}],"name":"createProfile","outputs":[],"stateMutability":"nonpayable","type":"function"},{"inputs":[{"internalType":"address","name":"_user","type":"address"}],"name":"getProfile","outputs":[{"internalType":"uint256","name":"age","type":"uint256"},{"internalType":"uint256","name":"income","type":"uint256"},{"internalType":"bool","name":"isRural","type":"bool"},{"internalType":"bool","name":"isBPL","type":"bool"},{"internalType":"bool","name":"isFarmer","type":"bool"},{"internalType":"bool","name":"isWoman","type":"bool"},{"internalType":"bool","name":"isSeniorCitizen","type":"bool"},{"internalType":"bool","name":"isDisabled","type":"bool"},{"internalType":"bool","name":"isVerified","type":"bool"}],"stateMutability":"view","type":"function"},{"inputs":[{"internalType":"bytes32","name":"","type":"bytes32"}],"name":"schemeCriteria","outputs":[{"internalType":"uint256","name":"minAge","type":"uint256"},{"internalType":"uint256","name":"maxAge","type":"uint256"},{"internalType":"uint256","name":"minIncome","type":"uint256"},{"internalType":"uint256","name":"maxIncome","type":"uint256"},{"internalType":"bool","name":"isRural","type":"bool"},{"internalType":"bool","name":"isBPL","type":"bool"},{"internalType":"bool","name":"isFarmer","type":"bool"},{"internalType":"bool","name":"isWoman","type":"bool"},{"internalType":"bool","name":"isSeniorCitizen","type":"bool"},{"internalType":"bool","name":"isDisabled","type":"bool"}],"stateMutability":"view","type":"function"},{"inputs":[{"internalType":"bytes32","name":"_schemeId","type":"bytes32"},{"internalType":"uint256","name":"_minAge","type":"uint256"},{"internalType":"uint256","name":"_maxAge","type":"uint256"},{"internalType":"uint256","name":"_minIncome","type":"uint256"},{"internalType":"uint256","name":"_maxIncome","type":"uint256"},{"internalType":"bool","name":"_isRural","type":"bool"},{"internalType":"bool","name":"_isBPL","type":"bool"},{"internalType":"bool","name":"_isFarmer","type":"bool"},{"internalType":"bool","name":"_isWoman","type":"bool"},{"internalType":"bool","name":"_isSeniorCitizen","type":"bool"},{"internalType":"bool","name":"_isDisabled","type":"bool"}],"name":"setSchemeCriteria","outputs":[],"stateMutability":"nonpayable","type":"function"},{"inputs":[{"internalType":"uint256","name":"_age","type":"uint256"},{"internalType":"uint256","name":"_income","type":"uint256"},{"internalType":"bool","name":"_isRural","type":"bool"},{"internalType":"bool","name":"_isBPL","type":"bool"},{"internalType":"bool","name":"_isFarmer","type":"bool"},{"internalType":"bool","name":"_isWoman","type":"bool"},{"internalType":"bool","name":"_isSeniorCitizen","type":"bool"},{"internalType":"bool","name":"_isDisabled","type":"bool"}],"name":"updateProfile","outputs":[],"stateMutability":"nonpayable","type":"function"},{"inputs":[{"internalType":"address","name":"","type":"address"}],"name":"userProfiles","outputs":[{"internalType":"uint256","name":"age","type":"uint256"},{"internalType":"uint256","name":"income","type":"uint256"},{"internalType":"bool","name":"isRural","type":"bool"},{"internalType":"bool","name":"isBPL","type":"bool"},{"internalType":"bool","name":"isFarmer","type":"bool"},{"internalType":"bool","name":"isWoman","type":"bool"},{"internalType":"bool","name":"isSeniorCitizen","type":"bool"},{"internalType":"bool","name":"isDisabled","type":"bool"},{"internalType":"bool","name":"isVerified","type":"bool"}],"stateMutability":"view","type":"function"},{"inputs":[{"internalType":"address","name":"_user","type":"address"}],"name":"verifyProfile","outputs":[],"stateMutability":"nonpayable","type":"function"}],"evm":{"bytecode":{"linkReferences":{},"object":"608060405234801561001057600080fd5b50610ef1806100206000396000f3fe608060405234801561001057600080fd5b50600436106100885760003560e01c80638e22e6431161005b5780638e22e643146102f6578063c72b62c714610319578063dfaef6591461032c578063fc7ea7b01461033f57600080fd5b80630f53a4701461008d578063332d56d7146101af5780633da5c9621461021d5780636b24505214610232575b600080fd5b61015a61009b366004610ce2565b6001600160a01b0316600090815260208181526040918290208251610120810184528154808252600183015493820184905260029092015460ff808216151595830186905261010080830482161515606085018190526201000084048316151560808601819052630100000085048416151560a0870181905264010000000086048516151560c08801819052600160281b87048616151560e08901819052600160301b9097049095161515939096018390529598969796909594939190565b60408051998a5260208a01989098529515159688019690965292151560608701529015156080860152151560a0850152151560c084015290151560e08301521515610100820152610120015b60405180910390f35b61015a6101bd366004610ce2565b60006020819052908152604090208054600182015460029092015490919060ff808216916101008104821691620100008204811691630100000081048216916401000000008204811691600160281b8104821691600160301b9091041689565b61023061022b366004610d14565b610352565b005b6102a2610240366004610dbd565b6001602081905260009182526040909120805491810154600282015460038301546004909301549192909160ff808216916101008104821691620100008204811691630100000081048216916401000000008204811691600160281b9004168a565b604080519a8b5260208b01999099529789019690965260608801949094529115156080870152151560a0860152151560c0850152151560e084015215156101008301521515610120820152610140016101a6565b610309610304366004610dd6565b6104de565b60405190151581526020016101a6565b610230610327366004610e02565b6108b1565b61023061033a366004610ce2565b610a4f565b61023061034d366004610e02565b610b50565b6040518061014001604052808b81526020018a815260200189815260200188815260200187151581526020018615158152602001851515815260200184151581526020018315158152602001821515815250600160008d81526020019081526020016000206000820151816000015560208201518160010155604082015181600201556060820151816003015560808201518160040160006101000a81548160ff02191690831515021790555060a08201518160040160016101000a81548160ff02191690831515021790555060c08201518160040160026101000a81548160ff02191690831515021790555060e08201518160040160036101000a81548160ff0219169083151502179055506101008201518160040160046101000a81548160ff0219169083151502179055506101208201518160040160056101000a81548160ff0219169083151502179055509050508a7f63cfa3e094bc809ab966075aa693e2e52d57fc32dfe25f13b175add8c91b6bd460405160405180910390a25050505050505050505050565b6001600160a01b038116600090815260208190526040812054810361051e5760405162461bcd60e51b815260040161051590610e8b565b60405180910390fd5b6001600160a01b038216600090815260208190526040902060020154600160301b900460ff166105875760405162461bcd60e51b8152602060048201526014602482015273141c9bd99a5b19481b9bdd081d995c9a599a595960621b6044820152606401610515565b6000806000846001600160a01b03166001600160a01b031681526020019081526020016000206040518061012001604052908160008201548152602001600182015481526020016002820160009054906101000a900460ff161515151581526020016002820160019054906101000a900460ff161515151581526020016002820160029054906101000a900460ff161515151581526020016002820160039054906101000a900460ff161515151581526020016002820160049054906101000a900460ff161515151581526020016002820160059054906101000a900460ff161515151581526020016002820160069054906101000a900460ff161515151581525050905060006001600086815260200190815260200160002060405180610140016040529081600082015481526020016001820154815260200160028201548152602001600382015481526020016004820160009054906101000a900460ff161515151581526020016004820160019054906101000a900460ff161515151581526020016004820160029054906101000a900460ff161515151581526020016004820160039054906101000a900460ff161515151581526020016004820160049054906101000a900460ff161515151581526020016004820160059054906101000a900460ff1615151515815250509050806000015182600001511080610793575060208101518251115b156107a3576000925050506108ab565b8060400151826020015110806107c0575080606001518260200151115b156107d0576000925050506108ab565b806080015180156107e357508160400151155b156107f3576000925050506108ab565b8060a00151801561080657508160600151155b15610816576000925050506108ab565b8060c00151801561082957508160800151155b15610839576000925050506108ab565b8060e00151801561084c57508160a00151155b1561085c576000925050506108ab565b806101000151801561087057508160c00151155b15610880576000925050506108ab565b806101200151801561089457508160e00151155b156108a4576000925050506108ab565b6001925050505b92915050565b33600090815260208190526040902054156109075760405162461bcd60e51b815260206004820152601660248201527550726f66696c6520616c72656164792065786973747360501b6044820152606401610515565b604080516101208101825289815260208082018a8152891515838501908152891515606085019081528915156080860190815289151560a0870190815289151560c0880190815289151560e089019081526000610100808b01828152338084529a8390528c83209b518c55985160018c015596516002909a01805496519551945193519251985161ffff199097169a151561ff0019169a909a179415159096029390931763ffff00001916620100009215159290920263ff0000001916919091176301000000911515919091021765ffff0000000019166401000000009115159190910265ff0000000000191617600160281b931515939093029290921760ff60301b1916600160301b921515929092029190911790925591517ff10ec97e920cde75887622583772c637595a40b1f7777c18e51ea36cd127475c9190a25050505050505050565b6001600160a01b0381166000908152602081905260408120549003610a865760405162461bcd60e51b815260040161051590610e8b565b6001600160a01b038116600090815260208190526040902060020154600160301b900460ff1615610af95760405162461bcd60e51b815260206004820152601860248201527f50726f66696c6520616c726561647920766572696669656400000000000000006044820152606401610515565b6001600160a01b038116600081815260208190526040808220600201805460ff60301b1916600160301b179055513392917f636c0cbbe1adc75ab87f0296292c09395166cae9c790e0d4a6e8ef35e040769b91a350565b336000908152602081905260408120549003610b7e5760405162461bcd60e51b815260040161051590610e8b565b604080516101208101825289815260208082018a8152891515838501908152891515606085019081528915156080860190815289151560a0870190815289151560c0880190815289151560e089019081526000610100808b01828152338084529a8390528c83209b518c55985160018c015596516002909a01805496519551945193519251985161ffff199097169a151561ff0019169a909a179415159096029390931763ffff00001916620100009215159290920263ff0000001916919091176301000000911515919091021765ffff0000000019166401000000009115159190910265ff0000000000191617600160281b931515939093029290921760ff60301b1916600160301b921515929092029190911790925591517fbe4ec58a792f909e102ee3d745d0c3b34a4d437a54d903c4db098d31c556422f9190a25050505050505050565b80356001600160a01b0381168114610cdd57600080fd5b919050565b600060208284031215610cf457600080fd5b610cfd82610cc6565b9392505050565b80358015158114610cdd57600080fd5b60008060008060008060008060008060006101608c8e031215610d3657600080fd5b8b359a5060208c0135995060408c0135985060608c0135975060808c01359650610d6260a08d01610d04565b9550610d7060c08d01610d04565b9450610d7e60e08d01610d04565b9350610d8d6101008d01610d04565b9250610d9c6101208d01610d04565b9150610dab6101408d01610d04565b90509295989b509295989b9093969950565b600060208284031215610dcf57600080fd5b5035919050565b60008060408385031215610de957600080fd5b82359150610df960208401610cc6565b90509250929050565b600080600080600080600080610100898b031215610e1f57600080fd5b8835975060208901359650610e3660408a01610d04565b9550610e4460608a01610d04565b9450610e5260808a01610d04565b9350610e6060a08a01610d04565b9250610e6e60c08a01610d04565b9150610e7c60e08a01610d04565b90509295985092959890939650565b602080825260169082015275141c9bd99a5b1948191bd95cc81b9bdd08195e1a5cdd60521b60408201526060019056fea26469706673582212201295b098518b08a72a1fc6017afe457741208379a3706d73f32d9e1c9571403e64736f6c63430008140033","opcodes":"PUSH1 0x80 PUSH1 0x40 MSTORE CALLVALUE DUP1 ISZERO PUSH2 0x10 JUMPI PUSH1 0x0 DUP1 REVERT JUMPDEST POP PUSH2 0xEF1 DUP1 PUSH2 0x20 PUSH1 0x0 CODECOPY PUSH1 0x0 RETURN INVALID PUSH1 0x80 PUSH1 0x40 MSTORE CALLVALUE DUP1 ISZERO PUSH2 0x10 JUMPI PUSH1 0x0 DUP1 REVERT JUMPDEST POP PUSH1 0x4 CALLDATASIZE LT PUSH2 0x88 JUMPI PUSH1 0x0 CALLDATALOAD PUSH1 0xE0 SHR DUP1 PUSH4 0x8E22E643 GT PUSH2 0x5B JUMPI DUP1 PUSH4 0x8E22E643 EQ PUSH2 0x2F6 JUMPI DUP1 PUSH4 0xC72B62C7 EQ PUSH2 0x319 JUMPI DUP1 PUSH4 0xDFAEF659 EQ PUSH2 0x32C JUMPI DUP1 PUSH4 0xFC7EA7B0 EQ PUSH2 0x33F JUMPI PUSH1 0x0 DUP1 REVERT JUMPDEST DUP1 PUSH4 0xF53A470 EQ PUSH2 0x8D JUMPI DUP1 PUSH4 0x332D56D7 EQ PUSH2 0x1AF JUMPI DUP1 PUSH4 0x3DA5C962 EQ PUSH2 0x21D JUMPI DUP1 PUSH4 0x6B245052 EQ PUSH2 0x232 JUMPI JUMPDEST PUSH1 0x0 DUP1 REVERT JUMPDEST PUSH2 0x15A PUSH2 0x9B CALLDATASIZE PUSH1 0x4 PUSH2 0xCE2 JUMP JUMPDEST PUSH1 0x1 PUSH1 0x1 PUSH1 0xA0 SHL SUB AND PUSH1 0x0 SWAP1 DUP2 MSTORE PUSH1 0x20 DUP2 DUP2 MSTORE PUSH1 0x40 SWAP2 DUP3 SWAP1 KECCAK256 DUP3 MLOAD PUSH2 0x120 DUP2 ADD DUP5 MSTORE DUP2 SLOAD DUP1 DUP3 MSTORE PUSH1 0x1 DUP4 ADD SLOAD SWAP4 DUP3 ADD DUP5 SWAP1 MSTORE PUSH1 0x2 SWAP1 SWAP3 ADD SLOAD PUSH1 0xFF DUP1 DUP3 AND ISZERO ISZERO SWAP6 DUP4 ADD DUP7 SWAP1 MSTORE PUSH2 0x100 DUP1 DUP4 DIV DUP3 AND ISZERO ISZERO PUSH1 0x60 DUP6 ADD DUP2 SWAP1 MSTORE PUSH3 0x10000 DUP5 DIV DUP4 AND ISZERO ISZERO PUSH1 0x80 DUP7 ADD DUP2 SWAP1 MSTORE PUSH4 0x1000000 DUP6 DIV DUP5 AND ISZERO ISZERO PUSH1 0xA0 DUP8 ADD DUP2 SWAP1 MSTORE PUSH5 0x100000000 DUP7 DIV DUP6 AND ISZERO ISZERO PUSH1 0xC0 DUP9 ADD DUP2 SWAP1 MSTORE PUSH1 0x1 PUSH1 0x28 SHL DUP8 DIV DUP7 AND ISZERO ISZERO PUSH1 0xE0 DUP10 ADD DUP2 SWAP1 MSTORE PUSH1 0x1 PUSH1 0x30 SHL SWAP1 SWAP8 DIV SWAP1 SWAP6 AND ISZERO ISZERO SWAP4 SWAP1 SWAP7 ADD DUP4 SWAP1 MSTORE SWAP6 SWAP9 SWAP7 SWAP8 SWAP7 SWAP1 SWAP6 SWAP5 SWAP4 SWAP2 SWAP1 JUMP JUMPDEST PUSH1 0x40 DUP1 MLOAD SWAP10 DUP11 MSTORE PUSH1 0x20 DUP11 ADD SWAP9 SWAP1 SWAP9 MSTORE SWAP6 ISZERO ISZERO SWAP7 DUP9 ADD SWAP7 SWAP1 SWAP7 MSTORE SWAP3 ISZERO ISZERO PUSH1 0x60 DUP8 ADD MSTORE SWAP1 ISZERO ISZERO PUSH1 0x80 DUP7 ADD MSTORE ISZERO ISZERO PUSH1 0xA0 DUP6 ADD MSTORE ISZERO ISZERO PUSH1 0xC0 DUP5 ADD MSTORE SWAP1 ISZERO ISZERO PUSH1 0xE0 DUP4 ADD MSTORE ISZERO ISZERO PUSH2 0x100 DUP3 ADD MSTORE PUSH2 0x120 ADD JUMPDEST PUSH1 0x40 MLOAD DUP1 SWAP2 SUB SWAP1 RETURN JUMPDEST PUSH2 0x15A PUSH2 0x1BD CALLDATASIZE PUSH1 0x4 PUSH2 0xCE2 JUMP JUMPDEST PUSH1 0x0 PUSH1 0x20 DUP2 SWAP1 MSTORE SWAP1 DUP2 MSTORE PUSH1 0x40 SWAP1 KECCAK256 DUP1 SLOAD PUSH1 0x1 DUP3 ADD SLOAD PUSH1 0x2 SWAP1 SWAP3 ADD SLOAD SWAP1 SWAP2 SWAP1 PUSH1 0xFF DUP1 DUP3 AND SWAP2 PUSH2 0x100 DUP2 DIV DUP3 AND SWAP2 PUSH3 0x10000 DUP3 DIV DUP2 AND SWAP2 PUSH4 0x1000000 DUP2 DIV DUP3 AND SWAP2 PUSH5 0x100000000 DUP3 DIV DUP2 AND SWAP2 PUSH1 0x1 PUSH1 0x28 SHL DUP2 DIV DUP3 AND SWAP2 PUSH1 0x1 PUSH1 0x30 SHL SWAP1 SWAP2 DIV AND DUP10 JUMP JUMPDEST PUSH2 0x230 PUSH2 0x22B CALLDATASIZE PUSH1 0x4 PUSH2 0xD14 JUMP JUMPDEST PUSH2 0x352 JUMP JUMPDEST STOP JUMPDEST PUSH2 0x2A2 PUSH2 0x240 CALLDATASIZE PUSH1 0x4 PUSH2 0xDBD JUMP JUMPDEST PUSH1 0x1 PUSH1 0x20 DUP2 SWAP1 MSTORE PUSH1 0x0 SWAP2 DUP3 MSTORE PUSH1 0x40 SWAP1 SWAP2 KECCAK256 DUP1 SLOAD SWAP2 DUP2 ADD SLOAD PUSH1 0x2 DUP3 ADD SLOAD PUSH1 0x3 DUP4 ADD SLOAD PUSH1 0x4 SWAP1 SWAP4 ADD SLOAD SWAP2 SWAP3 SWAP1 SWAP2 PUSH1 0xFF DUP1 DUP3 AND SWAP2 PUSH2 0x100 DUP2 DIV DUP3 AND SWAP2 PUSH3 0x10000 DUP3 DIV DUP2 AND SWAP2 PUSH4 0x1000000 DUP2 DIV DUP3 AND SWAP2 PUSH5 0x100000000 DUP3 DIV DUP2 AND SWAP2 PUSH1 0x1 PUSH1 0x28 SHL SWAP1 DIV AND DUP11 JUMP JUMPDEST PUSH1 0x40 DUP1 MLOAD SWAP11 DUP12 MSTORE PUSH1 0x20 DUP12 ADD SWAP10 SWAP1 SWAP10 MSTORE SWAP8 DUP10 ADD SWAP7 SWAP1 SWAP7 MSTORE PUSH1 0x60 DUP9 ADD SWAP5 SWAP1 SWAP5 MSTORE SWAP2 ISZERO ISZERO PUSH1 0x80 DUP8 ADD MSTORE ISZERO ISZERO PUSH1 0xA0 DUP7 ADD MSTORE ISZERO ISZERO PUSH1 0xC0 DUP6 ADD MSTORE ISZERO ISZERO PUSH1 0xE0 DUP5 ADD MSTORE ISZERO ISZERO PUSH2 0x100 DUP4 ADD MSTORE ISZERO ISZERO PUSH2 0x120 DUP3 ADD MSTORE PUSH2 0x140 ADD PUSH2 0x1A6 JUMP JUMPDEST PUSH2 0x309 PUSH2 0x304 CALLDATASIZE PUSH1 0x4 PUSH2 0xDD6 JUMP JUMPDEST PUSH2 0x4DE JUMP JUMPDEST PUSH1 0x40 MLOAD SWAP1 ISZERO ISZERO DUP2 MSTORE PUSH1 0x20 ADD PUSH2 0x1A6 JUMP JUMPDEST PUSH2 0x230 PUSH2 0x327 CALLDATASIZE PUSH1 0x4 PUSH2 0xE02 JUMP JUMPDEST PUSH2 0x8B1 JUMP JUMPDEST PUSH2 0x230 PUSH2 0x33A CALLDATASIZE PUSH1 0x4 PUSH2 0xCE2 JUMP JUMPDEST PUSH2 0xA4F JUMP JUMPDEST PUSH2 0x230 PUSH2 0x34D CALLDATASIZE PUSH1 0x4 PUSH2 0xE02 JUMP JUMPDEST PUSH2 0xB50 JUMP JUMPDEST PUSH1 0x40 MLOAD DUP1 PUSH2 0x140 ADD PUSH1 0x40 MSTORE DUP1 DUP12 DUP2 MSTORE PUSH1 0x20 ADD DUP11 DUP2 MSTORE PUSH1 0x20 ADD DUP10 DUP2 MSTORE PUSH1 0x20 ADD DUP9 DUP2 MSTORE PUSH1 0x20 ADD DUP8 ISZERO ISZERO DUP2 MSTORE PUSH1 0x20 ADD DUP7 ISZERO ISZERO DUP2 MSTORE PUSH1 0x20 ADD DUP6 ISZERO ISZERO DUP2 MSTORE PUSH1 0x20 ADD DUP5 ISZERO ISZERO DUP2 MSTORE PUSH1 0x20 ADD DUP4 ISZERO ISZERO DUP2 MSTORE PUSH1 0x20 ADD DUP3 ISZERO ISZERO DUP2 MSTORE POP PUSH1 0x1 PUSH1 0x0 DUP14 DUP2 MSTORE PUSH1 0x20 ADD SWAP1 DUP2 MSTORE PUSH1 0x20 ADD PUSH1 0x0 KECCAK256 PUSH1 0x0 DUP3 ADD MLOAD DUP2 PUSH1 0x0 ADD SSTORE PUSH1 0x20 DUP3 ADD MLOAD DUP2 PUSH1 0x1 ADD SSTORE PUSH1 0x40 DUP3 ADD MLOAD DUP2 PUSH1 0x2 ADD SSTORE PUSH1 0x60 DUP3 ADD MLOAD DUP2 PUSH1 0x3 ADD SSTORE PUSH1 0x80 DUP3 ADD MLOAD DUP2 PUSH1 0x4 ADD PUSH1 0x0 PUSH2 0x100 EXP DUP2 SLOAD DUP2 PUSH1 0xFF MUL NOT AND SWAP1 DUP4 ISZERO ISZERO MUL OR SWAP1 SSTORE POP PUSH1 0xA0 DUP3 ADD MLOAD DUP2 PUSH1 0x4 ADD PUSH1 0x1 PUSH2 0x100 EXP DUP2 SLOAD DUP2 PUSH1 0xFF MUL NOT AND SWAP1 DUP4 ISZERO ISZERO MUL OR SWAP1 SSTORE POP PUSH1 0xC0 DUP3 ADD MLOAD DUP2 PUSH1 0x4 ADD PUSH1 0x2 PUSH2 0x100 EXP DUP2 SLOAD DUP2 PUSH1 0xFF MUL NOT AND SWAP1 DUP4 ISZERO ISZERO MUL OR SWAP1 SSTORE POP PUSH1 0xE0 DUP3 ADD MLOAD DUP2 PUSH1 0x4 ADD PUSH1 0x3 PUSH2 0x100 EXP DUP2 SLOAD DUP2 PUSH1 0xFF MUL NOT AND SWAP1 DUP4 ISZERO ISZERO MUL OR SWAP1 SSTORE POP PUSH2 0x100 DUP3 ADD MLOAD DUP2 PUSH1 0x4 ADD PUSH1 0x4 PUSH2 0x100 EXP DUP2 SLOAD DUP2 PUSH1 0xFF MUL NOT AND SWAP1 DUP4 ISZERO ISZERO MUL OR SWAP1 SSTORE POP PUSH2 0x120 DUP3 ADD MLOAD DUP2 PUSH1 0x4 ADD PUSH1 0x5 PUSH2 0x100 EXP DUP2 SLOAD DUP2 PUSH1 0xFF MUL NOT AND SWAP1 DUP4 ISZERO ISZERO MUL OR SWAP1 SSTORE POP SWAP1 POP POP DUP11 PUSH32 0x63CFA3E094BC809AB966075AA693E2E52D57FC32DFE25F13B175ADD8C91B6BD4 PUSH1 0x40 MLOAD PUSH1 0x40 MLOAD DUP1 SWAP2 SUB SWAP1 LOG2 POP POP POP POP POP POP POP POP POP POP POP JUMP JUMPDEST PUSH1 0x1 PUSH1 0x1 PUSH1 0xA0 SHL SUB DUP2 AND PUSH1 0x0 SWAP1 DUP2 MSTORE PUSH1 0x20 DUP2 SWAP1 MSTORE PUSH1 0x40 DUP2 KECCAK256 SLOAD DUP2 SUB PUSH2 0x51E JUMPI PUSH1 0x40 MLOAD PUSH3 0x461BCD PUSH1 0xE5 SHL DUP2 MSTORE PUSH1 0x4 ADD PUSH2 0x515 SWAP1 PUSH2 0xE8B JUMP JUMPDEST PUSH1 0x40 MLOAD DUP1 SWAP2 SUB SWAP1 REVERT JUMPDEST PUSH1 0x1 PUSH1 0x1 PUSH1 0xA0 SHL SUB DUP3 AND PUSH1 0x0 SWAP1 DUP2 MSTORE PUSH1 0x20 DUP2 SWAP1 MSTORE PUSH1 0x40 SWAP1 KECCAK256 PUSH1 0x2 ADD SLOAD PUSH1 0x1 PUSH1 0x30 SHL SWAP1 DIV PUSH1 0xFF AND PUSH2 0x587 JUMPI PUSH1 0x40 MLOAD PUSH3 0x461BCD PUSH1 0xE5 SHL DUP2 MSTORE PUSH1 0x20 PUSH1 0x4 DUP3 ADD MSTORE PUSH1 0x14 PUSH1 0x24 DUP3 ADD MSTORE PUSH20 0x141C9BD99A5B19481B9BDD081D995C9A599A5959 PUSH1 0x62 SHL PUSH1 0x44 DUP3 ADD MSTORE PUSH1 0x64 ADD PUSH2 0x515 JUMP JUMPDEST PUSH1 0x0 DUP1 PUSH1 0x0 DUP5 PUSH1 0x1 PUSH1 0x1 PUSH1 0xA0 SHL SUB AND PUSH1 0x1 PUSH1 0x1 PUSH1 0xA0 SHL SUB AND DUP2 MSTORE PUSH1 0x20 ADD SWAP1 DUP2 MSTORE PUSH1 0x20 ADD PUSH1 0x0 KECCAK256 PUSH1 0x40 MLOAD DUP1 PUSH2 0x120 ADD PUSH1 0x40 MSTORE SWAP1 DUP2 PUSH1 0x0 DUP3 ADD SLOAD DUP2 MSTORE PUSH1 0x20 ADD PUSH1 0x1 DUP3 ADD SLOAD DUP2 MSTORE PUSH1 0x20 ADD PUSH1 0x2 DUP3 ADD PUSH1 0x0 SWAP1 SLOAD SWAP1 PUSH2 0x100 EXP SWAP1 DIV PUSH1 0xFF AND ISZERO ISZERO ISZERO ISZERO DUP2 MSTORE PUSH1 0x20 ADD PUSH1 0x2 DUP3 ADD PUSH1 0x1 SWAP1 SLOAD SWAP1 PUSH2 0x100 EXP SWAP1 DIV PUSH1 0xFF AND ISZERO ISZERO ISZERO ISZERO DUP2 MSTORE PUSH1 0x20 ADD PUSH1 0x2 DUP3 ADD PUSH1 0x2 SWAP1 SLOAD SWAP1 PUSH2 0x100 EXP SWAP1 DIV PUSH1 0xFF AND ISZERO ISZERO ISZERO ISZERO DUP2 MSTORE PUSH1 0x20 ADD PUSH1 0x2 DUP3 ADD PUSH1 0x3 SWAP1 SLOAD SWAP1 PUSH2 0x100 EXP SWAP1 DIV PUSH1 0xFF AND ISZERO ISZERO ISZERO ISZERO DUP2 MSTORE PUSH1 0x20 ADD PUSH1 0x2 DUP3 ADD PUSH1 0x4 SWAP1 SLOAD SWAP1 PUSH2 0x100 EXP SWAP1 DIV PUSH1 0xFF AND ISZERO ISZERO ISZERO ISZERO DUP2 MSTORE PUSH1 0x20 ADD PUSH1 0x2 DUP3 ADD PUSH1 0x5 SWAP1 SLOAD SWAP1 PUSH2 0x100 EXP SWAP1 DIV PUSH1 0xFF AND ISZERO ISZERO ISZERO ISZERO DUP2 MSTORE PUSH1 0x20 ADD PUSH1 0x2 DUP3 ADD PUSH1 0x6 SWAP1 SLOAD SWAP1 PUSH2 0x100 EXP SWAP1 DIV PUSH1 0xFF AND ISZERO ISZERO ISZERO ISZERO DUP2 MSTORE POP POP SWAP1 POP PUSH1 0x0 PUSH1 0x1 PUSH1 0x0 DUP7 DUP2 MSTORE PUSH1 0x20 ADD SWAP1 DUP2 MSTORE PUSH1 0x20 ADD PUSH1 0x0 KECCAK256 PUSH1 0x40 MLOAD DUP1 PUSH2 0x140 ADD PUSH1 0x40 MSTORE SWAP1 DUP2 PUSH1 0x0 DUP3 ADD SLOAD DUP2 MSTORE PUSH1 0x20 ADD PUSH1 0x1 DUP3 ADD SLOAD DUP2 MSTORE PUSH1 0x20 ADD PUSH1 0x2 DUP3 ADD SLOAD DUP2 MSTORE PUSH1 0x20 ADD PUSH1 0x3 DUP3 ADD SLOAD DUP2 MSTORE PUSH1 0x20 ADD PUSH1 0x4 DUP3 ADD PUSH1 0x0 SWAP1 SLOAD SWAP1 PUSH2 0x100 EXP SWAP1 DIV PUSH1 0xFF AND ISZERO ISZERO ISZERO ISZERO DUP2 MSTORE PUSH1 0x20 ADD PUSH1 0x4 DUP3 ADD PUSH1 0x1 SWAP1 SLOAD SWAP1 PUSH2 0x100 EXP SWAP1 DIV PUSH1 0xFF AND ISZERO ISZERO ISZERO ISZERO DUP2 MSTORE PUSH1 0x20 ADD PUSH1 0x4 DUP3 ADD PUSH1 0x2 SWAP1 SLOAD SWAP1 PUSH2 0x100 EXP SWAP1 DIV PUSH1 0xFF AND ISZERO ISZERO ISZERO ISZERO DUP2 MSTORE PUSH1 0x20 ADD PUSH1 0x4 DUP3 ADD PUSH1 0x3 SWAP1 SLOAD SWAP1 PUSH2 0x100 EXP SWAP1 DIV PUSH1 0xFF AND ISZERO ISZERO ISZERO ISZERO DUP2 MSTORE PUSH1 0x20 ADD PUSH1 0x4 DUP3 ADD PUSH1 0x4 SWAP1 SLOAD SWAP1 PUSH2 0x100 EXP SWAP1 DIV PUSH1 0xFF AND ISZERO ISZERO ISZERO ISZERO DUP2 MSTORE PUSH1 0x20 ADD PUSH1 0x4 DUP3 ADD PUSH1 0x5 SWAP1 SLOAD SWAP1 PUSH2 0x100 EXP SWAP1 DIV PUSH1 0xFF AND ISZERO ISZERO ISZERO ISZERO DUP2 MSTORE POP POP SWAP1 POP DUP1 PUSH1 0x0 ADD MLOAD DUP3 PUSH1 0x0 ADD MLOAD LT DUP1 PUSH2 0x793 JUMPI POP PUSH1 0x20 DUP2 ADD MLOAD DUP3 MLOAD GT JUMPDEST ISZERO PUSH2 0x7A3 JUMPI PUSH1 0x0 SWAP3 POP POP POP PUSH2 0x8AB JUMP JUMPDEST DUP1 PUSH1 0x40 ADD MLOAD DUP3 PUSH1 0x20 ADD MLOAD LT DUP1 PUSH2 0x7C0 JUMPI POP DUP1 PUSH1 0x60 ADD MLOAD DUP3 PUSH1 0x20 ADD MLOAD GT JUMPDEST ISZERO PUSH2 0x7D0 JUMPI PUSH1 0x0 SWAP3 POP POP POP PUSH2 0x8AB JUMP JUMPDEST DUP1 PUSH1 0x80 ADD MLOAD DUP1 ISZERO PUSH2 0x7E3 JUMPI POP DUP2 PUSH1 0x40 ADD MLOAD ISZERO JUMPDEST ISZERO PUSH2 0x7F3 JUMPI PUSH1 0x0 SWAP3 POP POP POP PUSH2 0x8AB JUMP JUMPDEST DUP1 PUSH1 0xA0 ADD MLOAD DUP1 ISZERO PUSH2 0x806 JUMPI POP DUP2 PUSH1 0x60 ADD MLOAD ISZERO JUMPDEST ISZERO PUSH2 0x816 JUMPI PUSH1 0x0 SWAP3 POP POP POP PUSH2 0x8AB JUMP JUMPDEST DUP1 PUSH1 0xC0 ADD MLOAD DUP1 ISZERO PUSH2 0x829 JUMPI POP DUP2 PUSH1 0x80 ADD MLOAD ISZERO JUMPDEST ISZERO PUSH2 0x839 JUMPI PUSH1 0x0 SWAP3 POP POP POP PUSH2 0x8AB JUMP JUMPDEST DUP1 PUSH1 0xE0 ADD MLOAD DUP1 ISZERO PUSH2 0x84C JUMPI POP DUP2 PUSH1 0xA0 ADD MLOAD ISZERO JUMPDEST ISZERO PUSH2 0x85C JUMPI PUSH1 0x0 SWAP3 POP POP POP PUSH2 0x8AB JUMP JUMPDEST DUP1 PUSH2 0x100 ADD MLOAD DUP1 ISZERO PUSH2 0x870 JUMPI POP DUP2 PUSH1 0xC0 ADD MLOAD ISZERO JUMPDEST ISZERO PUSH2 0x880 JUMPI PUSH1 0x0 SWAP3 POP POP POP PUSH2 0x8AB JUMP JUMPDEST DUP1 PUSH2 0x120 ADD MLOAD DUP1 ISZERO PUSH2 0x894 JUMPI POP DUP2 PUSH1 0xE0 ADD MLOAD ISZERO JUMPDEST ISZERO PUSH2 0x8A4 JUMPI PUSH1 0x0 SWAP3 POP POP POP PUSH2 0x8AB JUMP JUMPDEST PUSH1 0x1 SWAP3 POP POP POP JUMPDEST SWAP3 SWAP2 POP POP JUMP JUMPDEST CALLER PUSH1 0x0 SWAP1 DUP2 MSTORE PUSH1 0x20 DUP2 SWAP1 MSTORE PUSH1 0x40 SWAP1 KECCAK256 SLOAD ISZERO PUSH2 0x907 JUMPI PUSH1 0x40 MLOAD PUSH3 0x461BCD PUSH1 0xE5 SHL DUP2 MSTORE PUSH1 0x20 PUSH1 0x4 DUP3 ADD MSTORE PUSH1 0x16 PUSH1 0x24 DUP3 ADD MSTORE PUSH22 0x50726F66696C6520616C726561647920657869737473 PUSH1 0x50 SHL PUSH1 0x44 DUP3 ADD MSTORE PUSH1 0x64 ADD PUSH2 0x515 JUMP JUMPDEST PUSH1 0x40 DUP1 MLOAD PUSH2 0x120 DUP2 ADD DUP3 MSTORE DUP10 DUP2 MSTORE PUSH1 0x20 DUP1 DUP3 ADD DUP11 DUP2 MSTORE DUP10 ISZERO ISZERO DUP4 DUP6 ADD SWAP1 DUP2 MSTORE DUP10 ISZERO ISZERO PUSH1 0x60 DUP6 ADD SWAP1 DUP2 MSTORE DUP10 ISZERO ISZERO PUSH1 0x80 DUP7 ADD SWAP1 DUP2 MSTORE DUP10 ISZERO ISZERO PUSH1 0xA0 DUP8 ADD SWAP1 DUP2 MSTORE DUP10 ISZERO ISZERO PUSH1 0xC0 DUP9 ADD SWAP1 DUP2 MSTORE DUP10 ISZERO ISZERO PUSH1 0xE0 DUP10 ADD SWAP1 DUP2 MSTORE PUSH1 0x0 PUSH2 0x100 DUP1 DUP12 ADD DUP3 DUP2 MSTORE CALLER DUP1 DUP5 MSTORE SWAP11 DUP4 SWAP1 MSTORE DUP13 DUP4 KECCAK256 SWAP12 MLOAD DUP13 SSTORE SWAP9 MLOAD PUSH1 0x1 DUP13 ADD SSTORE SWAP7 MLOAD PUSH1 0x2 SWAP1 SWAP11 ADD DUP1 SLOAD SWAP7 MLOAD SWAP6 MLOAD SWAP5 MLOAD SWAP4 MLOAD SWAP3 MLOAD SWAP9 MLOAD PUSH2 0xFFFF NOT SWAP1 SWAP8 AND SWAP11 ISZERO ISZERO PUSH2 0xFF00 NOT AND SWAP11 SWAP1 SWAP11 OR SWAP5 ISZERO ISZERO SWAP1 SWAP7 MUL SWAP4 SWAP1 SWAP4 OR PUSH4 0xFFFF0000 NOT AND PUSH3 0x10000 SWAP3 ISZERO ISZERO SWAP3 SWAP1 SWAP3 MUL PUSH4 0xFF000000 NOT AND SWAP2 SWAP1 SWAP2 OR PUSH4 0x1000000 SWAP2 ISZERO ISZERO SWAP2 SWAP1 SWAP2 MUL OR PUSH6 0xFFFF00000000 NOT AND PUSH5 0x100000000 SWAP2 ISZERO ISZERO SWAP2 SWAP1 SWAP2 MUL PUSH6 0xFF0000000000 NOT AND OR PUSH1 0x1 PUSH1 0x28 SHL SWAP4 ISZERO ISZERO SWAP4 SWAP1 SWAP4 MUL SWAP3 SWAP1 SWAP3 OR PUSH1 0xFF PUSH1 0x30 SHL NOT AND PUSH1 0x1 PUSH1 0x30 SHL SWAP3 ISZERO ISZERO SWAP3 SWAP1 SWAP3 MUL SWAP2 SWAP1 SWAP2 OR SWAP1 SWAP3 SSTORE SWAP2 MLOAD PUSH32 0xF10EC97E920CDE75887622583772C637595A40B1F7777C18E51EA36CD127475C SWAP2 SWAP1 LOG2 POP POP POP POP POP POP POP POP JUMP JUMPDEST PUSH1 0x1 PUSH1 0x1 PUSH1 0xA0 SHL SUB DUP2 AND PUSH1 0x0 SWAP1 DUP2 MSTORE PUSH1 0x20 DUP2 SWAP1 MSTORE PUSH1 0x40 DUP2 KECCAK256 SLOAD SWAP1 SUB PUSH2 0xA86 JUMPI PUSH1 0x40 MLOAD PUSH3 0x461BCD PUSH1 0xE5 SHL DUP2 MSTORE PUSH1 0x4 ADD PUSH2 0x515 SWAP1 PUSH2 0xE8B JUMP JUMPDEST PUSH1 0x1 PUSH1 0x1 PUSH1 0xA0 SHL SUB DUP2 AND PUSH1 0x0 SWAP1 DUP2 MSTORE PUSH1 0x20 DUP2 SWAP1 MSTORE PUSH1 0x40 SWAP1 KECCAK256 PUSH1 0x2 ADD SLOAD PUSH1 0x1 PUSH1 0x30 SHL SWAP1 DIV PUSH1 0xFF AND ISZERO PUSH2 0xAF9 JUMPI PUSH1 0x40 MLOAD PUSH3 0x461BCD PUSH1 0xE5 SHL DUP2 MSTORE PUSH1 0x20 PUSH1 0x4 DUP3 ADD MSTORE PUSH1 0x18 PUSH1 0x24 DUP3 ADD MSTORE PUSH32 0x50726F66696C6520616C72656164792076657269666965640000000000000000 PUSH1 0x44 DUP3 ADD MSTORE PUSH1 0x64 ADD PUSH2 0x515 JUMP JUMPDEST PUSH1 0x1 PUSH1 0x1 PUSH1 0xA0 SHL SUB DUP2 AND PUSH1 0x0 DUP2 DUP2 MSTORE PUSH1 0x20 DUP2 SWAP1 MSTORE PUSH1 0x40 DUP1 DUP3 KECCAK256 PUSH1 0x2 ADD DUP1 SLOAD PUSH1 0xFF PUSH1 0x30 SHL NOT AND PUSH1 0x1 PUSH1 0x30 SHL OR SWAP1 SSTORE MLOAD CALLER SWAP3 SWAP2 PUSH32 0x636C0CBBE1ADC75AB87F0296292C09395166CAE9C790E0D4A6E8EF35E040769B SWAP2 LOG3 POP JUMP JUMPDEST CALLER PUSH1 0x0 SWAP1 DUP2 MSTORE PUSH1 0x20 DUP2 SWAP1 MSTORE PUSH1 0x40 DUP2 KECCAK256 SLOAD SWAP1 SUB PUSH2 0xB7E JUMPI PUSH1 0x40 MLOAD PUSH3 0x461BCD PUSH1 0xE5 SHL DUP2 MSTORE PUSH1 0x4 ADD PUSH2 0x515 SWAP1 PUSH2 0xE8B JUMP JUMPDEST PUSH1 0x40 DUP1 MLOAD PUSH2 0x120 DUP2 ADD DUP3 MSTORE DUP10 DUP2 MSTORE PUSH1 0x20 DUP1 DUP3 ADD DUP11 DUP2 MSTORE DUP10 ISZERO ISZERO DUP4 DUP6 ADD SWAP1 DUP2 MSTORE DUP10 ISZERO ISZERO PUSH1 0x60 DUP6 ADD SWAP1 DUP2 MSTORE DUP10 ISZERO ISZERO PUSH1 0x80 DUP7 ADD SWAP1 DUP2 MSTORE DUP10 ISZERO ISZERO PUSH1 0xA0 DUP8 ADD SWAP1 DUP2 MSTORE DUP10 ISZERO ISZERO PUSH1 0xC0 DUP9 ADD SWAP1 DUP2 MSTORE DUP10 ISZERO ISZERO PUSH1 0xE0 DUP10 ADD SWAP1 DUP2 MSTORE PUSH1 0x0 PUSH2 0x100 DUP1 DUP12 ADD DUP3 DUP2 MSTORE CALLER DUP1 DUP5 MSTORE SWAP11 DUP4 SWAP1 MSTORE DUP13 DUP4 KECCAK256 SWAP12 MLOAD DUP13 SSTORE SWAP9 MLOAD PUSH1 0x1 DUP13 ADD SSTORE SWAP7 MLOAD PUSH1 0x2 SWAP1 SWAP11 ADD DUP1 SLOAD SWAP7 MLOAD SWAP6 MLOAD SWAP5 MLOAD SWAP4 MLOAD SWAP3 MLOAD SWAP9 MLOAD PUSH2 0xFFFF NOT SWAP1 SWAP8 AND SWAP11 ISZERO ISZERO PUSH2 0xFF00 NOT AND SWAP11 SWAP1 SWAP11 OR SWAP5 ISZERO ISZERO SWAP1 SWAP7 MUL SWAP4 SWAP1 SWAP4 OR PUSH4 0xFFFF0000 NOT AND PUSH3 0x10000 SWAP3 ISZERO ISZERO SWAP3 SWAP1 SWAP3 MUL PUSH4 0xFF000000 NOT AND SWAP2 SWAP1 SWAP2 OR PUSH4 0x1000000 SWAP2 ISZERO ISZERO SWAP2 SWAP1 SWAP2 MUL OR PUSH6 0xFFFF00000000 NOT AND PUSH5 0x100000000 SWAP2 ISZERO ISZERO SWAP2 SWAP1 SWAP2 MUL PUSH6 0xFF0000000000 NOT AND OR PUSH1 0x1 PUSH1 0x28 SHL SWAP4 ISZERO ISZERO SWAP4 SWAP1 SWAP4 MUL SWAP3 SWAP1 SWAP3 OR PUSH1 0xFF PUSH1 0x30 SHL NOT AND PUSH1 0x1 PUSH1 0x30 SHL SWAP3 ISZERO ISZERO SWAP3 SWAP1 SWAP3 MUL SWAP2 SWAP1 SWAP2 OR SWAP1 SWAP3 SSTORE SWAP2 MLOAD PUSH32 0xBE4EC58A792F909E102EE3D745D0C3B34A4D437A54D903C4DB098D31C556422F SWAP2 SWAP1 LOG2 POP POP POP POP POP POP POP POP JUMP JUMPDEST DUP1 CALLDATALOAD PUSH1 0x1 PUSH1 0x1 PUSH1 0xA0 SHL SUB DUP2 AND DUP2 EQ PUSH2 0xCDD JUMPI PUSH1 0x0 DUP1 REVERT JUMPDEST SWAP2 SWAP1 POP JUMP JUMPDEST PUSH1 0x0 PUSH1 0x20 DUP3 DUP5 SUB SLT ISZERO PUSH2 0xCF4 JUMPI PUSH1 0x0 DUP1 REVERT JUMPDEST PUSH2 0xCFD DUP3 PUSH2 0xCC6 JUMP JUMPDEST SWAP4 SWAP3 POP POP POP JUMP JUMPDEST DUP1 CALLDATALOAD DUP1 ISZERO ISZERO DUP2 EQ PUSH2 0xCDD JUMPI PUSH1 0x0 DUP1 REVERT JUMPDEST PUSH1 0x0 DUP1 PUSH1 0x0 DUP1 PUSH1 0x0 DUP1 PUSH1 0x0 DUP1 PUSH1 0x0 DUP1 PUSH1 0x0 PUSH2 0x160 DUP13 DUP15 SUB SLT ISZERO PUSH2 0xD36 JUMPI PUSH1 0x0 DUP1 REVERT JUMPDEST DUP12 CALLDATALOAD SWAP11 POP PUSH1 0x20 DUP13 ADD CALLDATALOAD SWAP10 POP PUSH1 0x40 DUP13 ADD CALLDATALOAD SWAP9 POP PUSH1 0x60 DUP13 ADD CALLDATALOAD SWAP8 POP PUSH1 0x80 DUP13 ADD CALLDATALOAD SWAP7 POP PUSH2 0xD62 PUSH1 0xA0 DUP14 ADD PUSH2 0xD04 JUMP JUMPDEST SWAP6 POP PUSH2 0xD70 PUSH1 0xC0 DUP14 ADD PUSH2 0xD04 JUMP JUMPDEST SWAP5 POP PUSH2 0xD7E PUSH1 0xE0 DUP14 ADD PUSH2 0xD04 JUMP JUMPDEST SWAP4 POP PUSH2 0xD8D PUSH2 0x100 DUP14 ADD PUSH2 0xD04 JUMP JUMPDEST SWAP3 POP PUSH2 0xD9C PUSH2 0x120 DUP14 ADD PUSH2 0xD04 JUMP JUMPDEST SWAP2 POP PUSH2 0xDAB PUSH2 0x140 DUP14 ADD PUSH2 0xD04 JUMP JUMPDEST SWAP1 POP SWAP3 SWAP6 SWAP9 SWAP12 POP SWAP3 SWAP6 SWAP9 SWAP12 SWAP1 SWAP4 SWAP7 SWAP10 POP JUMP JUMPDEST PUSH1 0x0 PUSH1 0x20 DUP3 DUP5 SUB SLT ISZERO PUSH2 0xDCF JUMPI PUSH1 0x0 DUP1 REVERT JUMPDEST POP CALLDATALOAD SWAP2 SWAP1 POP JUMP JUMPDEST PUSH1 0x0 DUP1 PUSH1 0x40 DUP4 DUP6 SUB SLT ISZERO PUSH2 0xDE9 JUMPI PUSH1 0x0 DUP1 REVERT JUMPDEST DUP3 CALLDATALOAD SWAP2 POP PUSH2 0xDF9 PUSH1 0x20 DUP5 ADD PUSH2 0xCC6 JUMP JUMPDEST SWAP1 POP SWAP3 POP SWAP3 SWAP1 POP JUMP JUMPDEST PUSH1 0x0 DUP1 PUSH1 0x0 DUP1 PUSH1 0x0 DUP1 PUSH1 0x0 DUP1 PUSH2 0x100 DUP10 DUP12 SUB SLT ISZERO PUSH2 0xE1F JUMPI PUSH1 0x0 DUP1 REVERT JUMPDEST DUP9 CALLDATALOAD SWAP8 POP PUSH1 0x20 DUP10 ADD CALLDATALOAD SWAP7 POP PUSH2 0xE36 PUSH1 0x40 DUP11 ADD PUSH2 0xD04 JUMP JUMPDEST SWAP6 POP PUSH2 0xE44 PUSH1 0x60 DUP11 ADD PUSH2 0xD04 JUMP JUMPDEST SWAP5 POP PUSH2 0xE52 PUSH1 0x80 DUP11 ADD PUSH2 0xD04 JUMP JUMPDEST SWAP4 POP PUSH2 0xE60 PUSH1 0xA0 DUP11 ADD PUSH2 0xD04 JUMP JUMPDEST SWAP3 POP PUSH2 0xE6E PUSH1 0xC0 DUP11 ADD PUSH2 0xD04 JUMP JUMPDEST SWAP2 POP PUSH2 0xE7C PUSH1 0xE0 DUP11 ADD PUSH2 0xD04 JUMP JUMPDEST SWAP1 POP SWAP3 SWAP6 SWAP9 POP SWAP3 SWAP6 SWAP9 SWAP1 SWAP4 SWAP7 POP JUMP JUMPDEST PUSH1 0x20 DUP1 DUP3 MSTORE PUSH1 0x16 SWAP1 DUP3 ADD MSTORE PUSH22 0x141C9BD99A5B1948191BD95CC81B9BDD08195E1A5CDD PUSH1 0x52 SHL PUSH1 0x40 DUP3 ADD MSTORE PUSH1 0x60 ADD SWAP1 JUMP INVALID LOG2 PUSH5 0x6970667358 0x22 SLT KECCAK256 SLT SWAP6 0xB0 SWAP9 MLOAD DUP12 ADDMOD 0xA7 0x2A 0x1F 0xC6 ADD PUSH27 0xFE457741208379A3706D73F32D9E1C9571403E64736F6C63430008 EQ STOP CALLER "},"methodIdentifiers":{"checkEligibility(bytes32,address)":"8e22e643","createProfile(uint256,uint256,bool,bool,bool,bool,bool,bool)":"c72b62c7","getProfile(address)":"0f53a470","schemeCriteria(bytes32)":"6b245052","setSchemeCriteria(bytes32,uint256,uint256,uint256,uint256,bool,bool,bool,bool,bool,bool)":"3da5c962","updateProfile(uint256,uint256,bool,bool,bool,bool,bool,bool)":"fc7ea7b0","userProfiles(address)":"332d56d7","verifyProfile(address)":"dfaef659"}}}}}