{"contracts/WelfareRegistry.sol":{"WelfareRegistry":{"abi":[{"inputs":[],"stateMutability":"nonpayable","type":"constructor"},{"inputs":[{"internalType":"address","name":"owner","type":"address"}],"name":"OwnableInvalidOwner","type":"error"},{"inputs":[{"internalType":"address","name":"account","type":"address"}],"name":"OwnableUnauthorizedAccount","type":"error"},{"anonymous":false,"inputs":[{"indexed":true,"internalType":"address","name":"beneficiary","type":"address"}],"name":"BeneficiaryHistoryAdded","type":"event"},{"anonymous":false,"inputs":[{"indexed":true,"internalType":"address","name":"beneficiary","type":"address"}],"name":"BeneficiaryInfoUpdated","type":"event"},{"anonymous":false,"inputs":[{"indexed":true,"internalType":"address","name":"beneficiary","type":"address"}],"name":"BeneficiaryRegistered","type":"event"},{"anonymous":false,"inputs":[{"indexed":true,"internalType":"address","name":"beneficiary","type":"address"},{"indexed":false,"internalType":"bool","name":"status","type":"bool"}],"name":"BeneficiaryStatusUpdated","type":"event"},{"anonymous":false,"inputs":[{"indexed":true,"internalType":"address","name":"ministry","type":"address"}],"name":"MinistryRegistered","type":"event"},{"anonymous":false,"inputs":[{"indexed":true,"internalType":"address","name":"previousOwner","type":"address"},{"indexed":true,"internalType":"address","name":"newOwner","type":"address"}],"name":"OwnershipTransferred","type":"event"},{"inputs":[{"internalType":"address","name":"beneficiary","type":"address"},{"internalType":"string","name":"program","type":"string"},{"internalType":"uint256","name":"amount","type":"uint256"},{"internalType":"uint256","name":"date","type":"uint256"}],"name":"addBeneficiaryHistory","outputs":[],"stateMutability":"nonpayable","type":"function"},{"inputs":[{"internalType":"address","name":"","type":"address"},{"internalType":"uint256","name":"","type":"uint256"}],"name":"beneficiaryHistory","outputs":[{"internalType":"string","name":"program","type":"string"},{"internalType":"uint256","name":"amount","type":"uint256"},{"internalType":"uint256","name":"date","type":"uint256"}],"stateMutability":"view","type":"function"},{"inputs":[{"internalType":"address","name":"","type":"address"}],"name":"beneficiaryHistoryCount","outputs":[{"internalType":"uint256","name":"","type":"uint256"}],"stateMutability":"view","type":"function"},{"inputs":[{"internalType":"address","name":"","type":"address"}],"name":"beneficiaryInfo","outputs":[{"internalType":"string","name":"name","type":"string"},{"internalType":"uint256","name":"age","type":"uint256"},{"internalType":"string","name":"location","type":"string"},{"internalType":"uint256","name":"income","type":"uint256"},{"internalType":"uint256","name":"familySize","type":"uint256"},{"internalType":"bool","name":"isActive","type":"bool"}],"stateMutability":"view","type":"function"},{"inputs":[{"internalType":"address","name":"beneficiary","type":"address"},{"internalType":"uint256","name":"index","type":"uint256"}],"name":"getBeneficiaryHistory","outputs":[{"components":[{"internalType":"string","name":"program","type":"string"},{"internalType":"uint256","name":"amount","type":"uint256"},{"internalType":"uint256","name":"date","type":"uint256"}],"internalType":"struct WelfareRegistry.BeneficiaryHistory","name":"","type":"tuple"}],"stateMutability":"view","type":"function"},{"inputs":[{"internalType":"address","name":"beneficiary","type":"address"}],"name":"getBeneficiaryHistoryCount","outputs":[{"internalType":"uint256","name":"","type":"uint256"}],"stateMutability":"view","type":"function"},{"inputs":[{"internalType":"address","name":"","type":"address"}],"name":"isBeneficiary","outputs":[{"internalType":"bool","name":"","type":"bool"}],"stateMutability":"view","type":"function"},{"inputs":[{"internalType":"address","name":"","type":"address"}],"name":"isMinistry","outputs":[{"internalType":"bool","name":"","type":"bool"}],"stateMutability":"view","type":"function"},{"inputs":[],"name":"owner","outputs":[{"internalType":"address","name":"","type":"address"}],"stateMutability":"view","type":"function"},{"inputs":[{"internalType":"address","name":"beneficiary","type":"address"}],"name":"registerBeneficiary","outputs":[],"stateMutability":"nonpayable","type":"function"},{"inputs":[{"internalType":"address","name":"ministry","type":"address"}],"name":"registerMinistry","outputs":[],"stateMutability":"nonpayable","type":"function"},{"inputs":[],"name":"renounceOwnership","outputs":[],"stateMutability":"nonpayable","type":"function"},{"inputs":[{"internalType":"address","name":"newOwner","type":"address"}],"name":"transferOwnership","outputs":[],"stateMutability":"nonpayable","type":"function"},{"inputs":[{"internalType":"address","name":"beneficiary","type":"address"},{"internalType":"string","name":"name","type":"string"},{"internalType":"uint256","name":"age","type":"uint256"},{"internalType":"string","name":"location","type":"string"},{"internalType":"uint256","name":"income","type":"uint256"},{"internalType":"uint256","name":"familySize","type":"uint256"}],"name":"updateBeneficiaryInfo","outputs":[],"stateMutability":"nonpayable","type":"function"},{"inputs":[{"internalType":"address","name":"beneficiary","type":"address"},{"internalType":"bool","name":"status","type":"bool"}],"name":"updateBeneficiaryStatus","outputs":[],"stateMutability":"nonpayable","type":"function"}],"evm":{"bytecode":{"linkReferences":{},"object":"608060405234801561001057600080fd5b50338061003757604051631e4fbdf760e01b81526000600482015260240160405180910390fd5b61004081610046565b50610096565b600080546001600160a01b038381166001600160a01b0319831681178455604051919092169283917f8be0079c531659141344cd1fd0a4f28419497f9722a3daafe3b4186f6b6457e09190a35050565b61114e806100a56000396000f3fe608060405234801561001057600080fd5b50600436106100f55760003560e01c80638da5cb5b11610097578063a40a525211610066578063a40a525214610251578063cdd8b2b214610271578063f2fde38b14610284578063f7f31d221461029757600080fd5b80638da5cb5b146101ba5780639983c36f146101d55780639d19b2261461020c5780639d79fdb21461022f57600080fd5b806367208ad6116100d357806367208ad61461015a578063715018a61461017a57806376f3347e14610182578063894c6e4d1461019557600080fd5b80633a889886146100fa5780634a7313931461010f5780635ee68a2214610122575b600080fd5b61010d610108366004610c18565b6102aa565b005b61010d61011d366004610c54565b61037c565b610145610130366004610c54565b60016020526000908152604090205460ff1681565b60405190151581526020015b60405180910390f35b61016d610168366004610c76565b61043c565b6040516101519190610ce6565b61010d6105b0565b61010d610190366004610dc5565b6105c4565b6101a86101a3366004610c54565b61070b565b60405161015196959493929190610e55565b6000546040516001600160a01b039091168152602001610151565b6101fe6101e3366004610c54565b6001600160a01b031660009081526005602052604090205490565b604051908152602001610151565b61014561021a366004610c54565b60026020526000908152604090205460ff1681565b61024261023d366004610c76565b610854565b60405161015193929190610ea1565b6101fe61025f366004610c54565b60056020526000908152604090205481565b61010d61027f366004610c54565b610923565b61010d610292366004610c54565b610a07565b61010d6102a5366004610ec6565b610a45565b3360009081526001602052604090205460ff166102e25760405162461bcd60e51b81526004016102d990610f24565b60405180910390fd5b6001600160a01b03821660009081526002602052604090205460ff1661031a5760405162461bcd60e51b81526004016102d990610f5b565b6001600160a01b038216600081815260036020908152604091829020600501805460ff191685151590811790915591519182527f11dd624c11f64dd438c72f37d0c1c16c808db0b93317f227abab80d3a4f674da910160405180910390a25050565b610384610b7f565b6001600160a01b03811660009081526001602052604090205460ff16156103ed5760405162461bcd60e51b815260206004820152601d60248201527f4164647265737320697320616c72656164792061206d696e697374727900000060448201526064016102d9565b6001600160a01b0381166000818152600160208190526040808320805460ff1916909217909155517f80bef479f448790f02e59555bd742f260a7f1e754527e2a58fed0681aef7a0d99190a250565b61046060405180606001604052806060815260200160008152602001600081525090565b6001600160a01b03831660009081526005602052604090205482106104bf5760405162461bcd60e51b8152602060048201526015602482015274092dcecc2d8d2c840d0d2e6e8dee4f240d2dcc8caf605b1b60448201526064016102d9565b6001600160a01b03831660009081526004602052604090208054839081106104e9576104e9610f92565b906000526020600020906003020160405180606001604052908160008201805461051290610fa8565b80601f016020809104026020016040519081016040528092919081815260200182805461053e90610fa8565b801561058b5780601f106105605761010080835404028352916020019161058b565b820191906000526020600020905b81548152906001019060200180831161056e57829003601f168201915b5050505050815260200160018201548152602001600282015481525050905092915050565b6105b8610b7f565b6105c26000610bac565b565b3360009081526001602052604090205460ff166105f35760405162461bcd60e51b81526004016102d990610f24565b6001600160a01b03861660009081526002602052604090205460ff1661062b5760405162461bcd60e51b81526004016102d990610f5b565b6040805160c08101825286815260208082018790528183018690526060820185905260808201849052600160a08301526001600160a01b0389166000908152600390915291909120815181906106819082611031565b5060208201516001820155604082015160028201906106a09082611031565b50606082015160038201556080820151600482015560a0909101516005909101805460ff19169115159190911790556040516001600160a01b038716907f8ffd9376e572d2cd948e8df053ce15a3c059df524bc670e3c4902812310ede1890600090a2505050505050565b60036020526000908152604090208054819061072690610fa8565b80601f016020809104026020016040519081016040528092919081815260200182805461075290610fa8565b801561079f5780601f106107745761010080835404028352916020019161079f565b820191906000526020600020905b81548152906001019060200180831161078257829003601f168201915b5050505050908060010154908060020180546107ba90610fa8565b80601f01602080910402602001604051908101604052809291908181526020018280546107e690610fa8565b80156108335780601f1061080857610100808354040283529160200191610833565b820191906000526020600020905b81548152906001019060200180831161081657829003601f168201915b50505050600383015460048401546005909401549293909290915060ff1686565b6004602052816000526040600020818154811061087057600080fd5b90600052602060002090600302016000915091505080600001805461089490610fa8565b80601f01602080910402602001604051908101604052809291908181526020018280546108c090610fa8565b801561090d5780601f106108e25761010080835404028352916020019161090d565b820191906000526020600020905b8154815290600101906020018083116108f057829003601f168201915b5050505050908060010154908060020154905083565b3360009081526001602052604090205460ff166109525760405162461bcd60e51b81526004016102d990610f24565b6001600160a01b03811660009081526002602052604090205460ff16156109bb5760405162461bcd60e51b815260206004820181905260248201527f4164647265737320697320616c726561647920612062656e656669636961727960448201526064016102d9565b6001600160a01b038116600081815260026020526040808220805460ff19166001179055517f329ad8638175cf0ec9495317a92731a014f08f8ea5ae6446aaa77bdd21a0f83c9190a250565b610a0f610b7f565b6001600160a01b038116610a3957604051631e4fbdf760e01b8152600060048201526024016102d9565b610a4281610bac565b50565b3360009081526001602052604090205460ff16610a745760405162461bcd60e51b81526004016102d990610f24565b6001600160a01b03841660009081526002602052604090205460ff16610aac5760405162461bcd60e51b81526004016102d990610f5b565b6001600160a01b038416600090815260046020908152604080832081516060810183528781528084018790529182018590528054600181018255908452919092208251600390920201908190610b029082611031565b5060208281015160018301556040928301516002909201919091556001600160a01b03861660009081526005909152908120805491610b40836110f1565b90915550506040516001600160a01b038516907f531847428c0372444c153e698bcd00fd171f4278dee278891b7d38f56d4b3ace90600090a250505050565b6000546001600160a01b031633146105c25760405163118cdaa760e01b81523360048201526024016102d9565b600080546001600160a01b038381166001600160a01b0319831681178455604051919092169283917f8be0079c531659141344cd1fd0a4f28419497f9722a3daafe3b4186f6b6457e09190a35050565b80356001600160a01b0381168114610c1357600080fd5b919050565b60008060408385031215610c2b57600080fd5b610c3483610bfc565b915060208301358015158114610c4957600080fd5b809150509250929050565b600060208284031215610c6657600080fd5b610c6f82610bfc565b9392505050565b60008060408385031215610c8957600080fd5b610c9283610bfc565b946020939093013593505050565b6000815180845260005b81811015610cc657602081850181015186830182015201610caa565b506000602082860101526020601f19601f83011685010191505092915050565b602081526000825160606020840152610d026080840182610ca0565b905060208401516040840152604084015160608401528091505092915050565b634e487b7160e01b600052604160045260246000fd5b600082601f830112610d4957600080fd5b813567ffffffffffffffff80821115610d6457610d64610d22565b604051601f8301601f19908116603f01168101908282118183101715610d8c57610d8c610d22565b81604052838152866020858801011115610da557600080fd5b836020870160208301376000602085830101528094505050505092915050565b60008060008060008060c08789031215610dde57600080fd5b610de787610bfc565b9550602087013567ffffffffffffffff80821115610e0457600080fd5b610e108a838b01610d38565b9650604089013595506060890135915080821115610e2d57600080fd5b50610e3a89828a01610d38565b9350506080870135915060a087013590509295509295509295565b60c081526000610e6860c0830189610ca0565b8760208401528281036040840152610e808188610ca0565b606084019690965250506080810192909252151560a0909101529392505050565b606081526000610eb46060830186610ca0565b60208301949094525060400152919050565b60008060008060808587031215610edc57600080fd5b610ee585610bfc565b9350602085013567ffffffffffffffff811115610f0157600080fd5b610f0d87828801610d38565b949794965050505060408301359260600135919050565b60208082526018908201527f43616c6c6572206973206e6f742061206d696e69737472790000000000000000604082015260600190565b6020808252601c908201527f41646472657373206973206e6f7420612062656e656669636961727900000000604082015260600190565b634e487b7160e01b600052603260045260246000fd5b600181811c90821680610fbc57607f821691505b602082108103610fdc57634e487b7160e01b600052602260045260246000fd5b50919050565b601f82111561102c57600081815260208120601f850160051c810160208610156110095750805b601f850160051c820191505b8181101561102857828155600101611015565b5050505b505050565b815167ffffffffffffffff81111561104b5761104b610d22565b61105f816110598454610fa8565b84610fe2565b602080601f831160018114611094576000841561107c5750858301515b600019600386901b1c1916600185901b178555611028565b600085815260208120601f198616915b828110156110c3578886015182559484019460019091019084016110a4565b50858210156110e15787850151600019600388901b60f8161c191681555b5050505050600190811b01905550565b60006001820161111157634e487b7160e01b600052601160045260246000fd5b506001019056fea26469706673582212208258d3fd8dd85af0cd43e380f6979281a51fe32e7265cceace66c7ef6cfd35ab64736f6c63430008140033","opcodes":"PUSH1 0x80 PUSH1 0x40 MSTORE CALLVALUE DUP1 ISZERO PUSH2 0x10 JUMPI PUSH1 0x0 DUP1 REVERT JUMPDEST POP CALLER DUP1 PUSH2 0x37 JUMPI PUSH1 0x40 MLOAD PUSH4 0x1E4FBDF7 PUSH1 0xE0 SHL DUP2 MSTORE PUSH1 0x0 PUSH1 0x4 DUP3 ADD MSTORE PUSH1 0x24 ADD PUSH1 0x40 MLOAD DUP1 SWAP2 SUB SWAP1 REVERT JUMPDEST PUSH2 0x40 DUP2 PUSH2 0x46 JUMP JUMPDEST POP PUSH2 0x96 JUMP JUMPDEST PUSH1 0x0 DUP1 SLOAD PUSH1 0x1 PUSH1 0x1 PUSH1 0xA0 SHL SUB DUP4 DUP2 AND PUSH1 0x1 PUSH1 0x1 PUSH1 0xA0 SHL SUB NOT DUP4 AND DUP2 OR DUP5 SSTORE PUSH1 0x40 MLOAD SWAP2 SWAP1 SWAP3 AND SWAP3 DUP4 SWAP2 PUSH32 0x8BE0079C531659141344CD1FD0A4F28419497F9722A3DAAFE3B4186F6B6457E0 SWAP2 SWAP1 LOG3 POP POP JUMP JUMPDEST PUSH2 0x114E DUP1 PUSH2 0xA5 PUSH1 0x0 CODECOPY PUSH1 0x0 RETURN INVALID PUSH1 0x80 PUSH1 0x40 MSTORE CALLVALUE DUP1 ISZERO PUSH2 0x10 JUMPI PUSH1 0x0 DUP1 REVERT JUMPDEST POP PUSH1 0x4 CALLDATASIZE LT PUSH2 0xF5 JUMPI PUSH1 0x0 CALLDATALOAD PUSH1 0xE0 SHR DUP1 PUSH4 0x8DA5CB5B GT PUSH2 0x97 JUMPI DUP1 PUSH4 0xA40A5252 GT PUSH2 0x66 JUMPI DUP1 PUSH4 0xA40A5252 EQ PUSH2 0x251 JUMPI DUP1 PUSH4 0xCDD8B2B2 EQ PUSH2 0x271 JUMPI DUP1 PUSH4 0xF2FDE38B EQ PUSH2 0x284 JUMPI DUP1 PUSH4 0xF7F31D22 EQ PUSH2 0x297 JUMPI PUSH1 0x0 DUP1 REVERT JUMPDEST DUP1 PUSH4 0x8DA5CB5B EQ PUSH2 0x1BA JUMPI DUP1 PUSH4 0x9983C36F EQ PUSH2 0x1D5 JUMPI DUP1 PUSH4 0x9D19B226 EQ PUSH2 0x20C JUMPI DUP1 PUSH4 0x9D79FDB2 EQ PUSH2 0x22F JUMPI PUSH1 0x0 DUP1 REVERT JUMPDEST DUP1 PUSH4 0x67208AD6 GT PUSH2 0xD3 JUMPI DUP1 PUSH4 0x67208AD6 EQ PUSH2 0x15A JUMPI DUP1 PUSH4 0x715018A6 EQ PUSH2 0x17A JUMPI DUP1 PUSH4 0x76F3347E EQ PUSH2 0x182 JUMPI DUP1 PUSH4 0x894C6E4D EQ PUSH2 0x195 JUMPI PUSH1 0x0 DUP1 REVERT JUMPDEST DUP1 PUSH4 0x3A889886 EQ PUSH2 0xFA JUMPI DUP1 PUSH4 0x4A731393 EQ PUSH2 0x10F JUMPI DUP1 PUSH4 0x5EE68A22 EQ PUSH2 0x122 JUMPI JUMPDEST PUSH1 0x0 DUP1 REVERT JUMPDEST PUSH2 0x10D PUSH2 0x108 CALLDATASIZE PUSH1 0x4 PUSH2 0xC18 JUMP JUMPDEST PUSH2 0x2AA JUMP JUMPDEST STOP JUMPDEST PUSH2 0x10D PUSH2 0x11D CALLDATASIZE PUSH1 0x4 PUSH2 0xC54 JUMP JUMPDEST PUSH2 0x37C JUMP JUMPDEST PUSH2 0x145 PUSH2 0x130 CALLDATASIZE PUSH1 0x4 PUSH2 0xC54 JUMP JUMPDEST PUSH1 0x1 PUSH1 0x20 MSTORE PUSH1 0x0 SWAP1 DUP2 MSTORE PUSH1 0x40 SWAP1 KECCAK256 SLOAD PUSH1 0xFF AND DUP2 JUMP JUMPDEST PUSH1 0x40 MLOAD SWAP1 ISZERO ISZERO DUP2 MSTORE PUSH1 0x20 ADD JUMPDEST PUSH1 0x40 MLOAD DUP1 SWAP2 SUB SWAP1 RETURN JUMPDEST PUSH2 0x16D PUSH2 0x168 CALLDATASIZE PUSH1 0x4 PUSH2 0xC76 JUMP JUMPDEST PUSH2 0x43C JUMP JUMPDEST PUSH1 0x40 MLOAD PUSH2 0x151 SWAP2 SWAP1 PUSH2 0xCE6 JUMP JUMPDEST PUSH2 0x10D PUSH2 0x5B0 JUMP JUMPDEST PUSH2 0x10D PUSH2 0x190 CALLDATASIZE PUSH1 0x4 PUSH2 0xDC5 JUMP JUMPDEST PUSH2 0x5C4 JUMP JUMPDEST PUSH2 0x1A8 PUSH2 0x1A3 CALLDATASIZE PUSH1 0x4 PUSH2 0xC54 JUMP JUMPDEST PUSH2 0x70B JUMP JUMPDEST PUSH1 0x40 MLOAD PUSH2 0x151 SWAP7 SWAP6 SWAP5 SWAP4 SWAP3 SWAP2 SWAP1 PUSH2 0xE55 JUMP JUMPDEST PUSH1 0x0 SLOAD PUSH1 0x40 MLOAD PUSH1 0x1 PUSH1 0x1 PUSH1 0xA0 SHL SUB SWAP1 SWAP2 AND DUP2 MSTORE PUSH1 0x20 ADD PUSH2 0x151 JUMP JUMPDEST PUSH2 0x1FE PUSH2 0x1E3 CALLDATASIZE PUSH1 0x4 PUSH2 0xC54 JUMP JUMPDEST PUSH1 0x1 PUSH1 0x1 PUSH1 0xA0 SHL SUB AND PUSH1 0x0 SWAP1 DUP2 MSTORE PUSH1 0x5 PUSH1 0x20 MSTORE PUSH1 0x40 SWAP1 KECCAK256 SLOAD SWAP1 JUMP JUMPDEST PUSH1 0x40 MLOAD SWAP1 DUP2 MSTORE PUSH1 0x20 ADD PUSH2 0x151 JUMP JUMPDEST PUSH2 0x145 PUSH2 0x21A CALLDATASIZE PUSH1 0x4 PUSH2 0xC54 JUMP JUMPDEST PUSH1 0x2 PUSH1 0x20 MSTORE PUSH1 0x0 SWAP1 DUP2 MSTORE PUSH1 0x40 SWAP1 KECCAK256 SLOAD PUSH1 0xFF AND DUP2 JUMP JUMPDEST PUSH2 0x242 PUSH2 0x23D CALLDATASIZE PUSH1 0x4 PUSH2 0xC76 JUMP JUMPDEST PUSH2 0x854 JUMP JUMPDEST PUSH1 0x40 MLOAD PUSH2 0x151 SWAP4 SWAP3 SWAP2 SWAP1 PUSH2 0xEA1 JUMP JUMPDEST PUSH2 0x1FE PUSH2 0x25F CALLDATASIZE PUSH1 0x4 PUSH2 0xC54 JUMP JUMPDEST PUSH1 0x5 PUSH1 0x20 MSTORE PUSH1 0x0 SWAP1 DUP2 MSTORE PUSH1 0x40 SWAP1 KECCAK256 SLOAD DUP2 JUMP JUMPDEST PUSH2 0x10D PUSH2 0x27F CALLDATASIZE PUSH1 0x4 PUSH2 0xC54 JUMP JUMPDEST PUSH2 0x923 JUMP JUMPDEST PUSH2 0x10D PUSH2 0x292 CALLDATASIZE PUSH1 0x4 PUSH2 0xC54 JUMP JUMPDEST PUSH2 0xA07 JUMP JUMPDEST PUSH2 0x10D PUSH2 0x2A5 CALLDATASIZE PUSH1 0x4 PUSH2 0xEC6 JUMP JUMPDEST PUSH2 0xA45 JUMP JUMPDEST CALLER PUSH1 0x0 SWAP1 DUP2 MSTORE PUSH1 0x1 PUSH1 0x20 MSTORE PUSH1 0x40 SWAP1 KECCAK256 SLOAD PUSH1 0xFF AND PUSH2 0x2E2 JUMPI PUSH1 0x40 MLOAD PUSH3 0x461BCD PUSH1 0xE5 SHL DUP2 MSTORE PUSH1 0x4 ADD PUSH2 0x2D9 SWAP1 PUSH2 0xF24 JUMP JUMPDEST PUSH1 0x40 MLOAD DUP1 SWAP2 SUB SWAP1 REVERT JUMPDEST PUSH1 0x1 PUSH1 0x1 PUSH1 0xA0 SHL SUB DUP3 AND PUSH1 0x0 SWAP1 DUP2 MSTORE PUSH1 0x2 PUSH1 0x20 MSTORE PUSH1 0x40 SWAP1 KECCAK256 SLOAD PUSH1 0xFF AND PUSH2 0x31A JUMPI PUSH1 0x40 MLOAD PUSH3 0x461BCD PUSH1 0xE5 SHL DUP2 MSTORE PUSH1 0x4 ADD PUSH2 0x2D9 SWAP1 PUSH2 0xF5B JUMP JUMPDEST PUSH1 0x1 PUSH1 0x1 PUSH1 0xA0 SHL SUB DUP3 AND PUSH1 0x0 DUP2 DUP2 MSTORE PUSH1 0x3 PUSH1 0x20 SWAP1 DUP2 MSTORE PUSH1 0x40 SWAP2 DUP3 SWAP1 KECCAK256 PUSH1 0x5 ADD DUP1 SLOAD PUSH1 0xFF NOT AND DUP6 ISZERO ISZERO SWAP1 DUP2 OR SWAP1 SWAP2 SSTORE SWAP2 MLOAD SWAP2 DUP3 MSTORE PUSH32 0x11DD624C11F64DD438C72F37D0C1C16C808DB0B93317F227ABAB80D3A4F674DA SWAP2 ADD PUSH1 0x40 MLOAD DUP1 SWAP2 SUB SWAP1 LOG2 POP POP JUMP JUMPDEST PUSH2 0x384 PUSH2 0xB7F JUMP JUMPDEST PUSH1 0x1 PUSH1 0x1 PUSH1 0xA0 SHL SUB DUP2 AND PUSH1 0x0 SWAP1 DUP2 MSTORE PUSH1 0x1 PUSH1 0x20 MSTORE PUSH1 0x40 SWAP1 KECCAK256 SLOAD PUSH1 0xFF AND ISZERO PUSH2 0x3ED JUMPI PUSH1 0x40 MLOAD PUSH3 0x461BCD PUSH1 0xE5 SHL DUP2 MSTORE PUSH1 0x20 PUSH1 0x4 DUP3 ADD MSTORE PUSH1 0x1D PUSH1 0x24 DUP3 ADD MSTORE PUSH32 0x4164647265737320697320616C72656164792061206D696E6973747279000000 PUSH1 0x44 DUP3 ADD MSTORE PUSH1 0x64 ADD PUSH2 0x2D9 JUMP JUMPDEST PUSH1 0x1 PUSH1 0x1 PUSH1 0xA0 SHL SUB DUP2 AND PUSH1 0x0 DUP2 DUP2 MSTORE PUSH1 0x1 PUSH1 0x20 DUP2 SWAP1 MSTORE PUSH1 0x40 DUP1 DUP4 KECCAK256 DUP1 SLOAD PUSH1 0xFF NOT AND SWAP1 SWAP3 OR SWAP1 SWAP2 SSTORE MLOAD PUSH32 0x80BEF479F448790F02E59555BD742F260A7F1E754527E2A58FED0681AEF7A0D9 SWAP2 SWAP1 LOG2 POP JUMP JUMPDEST PUSH2 0x460 PUSH1 0x40 MLOAD DUP1 PUSH1 0x60 ADD PUSH1 0x40 MSTORE DUP1 PUSH1 0x60 DUP2 MSTORE PUSH1 0x20 ADD PUSH1 0x0 DUP2 MSTORE PUSH1 0x20 ADD PUSH1 0x0 DUP2 MSTORE POP SWAP1 JUMP JUMPDEST PUSH1 0x1 PUSH1 0x1 PUSH1 0xA0 SHL SUB DUP4 AND PUSH1 0x0 SWAP1 DUP2 MSTORE PUSH1 0x5 PUSH1 0x20 MSTORE PUSH1 0x40 SWAP1 KECCAK256 SLOAD DUP3 LT PUSH2 0x4BF JUMPI PUSH1 0x40 MLOAD PUSH3 0x461BCD PUSH1 0xE5 SHL DUP2 MSTORE PUSH1 0x20 PUSH1 0x4 DUP3 ADD MSTORE PUSH1 0x15 PUSH1 0x24 DUP3 ADD MSTORE PUSH21 0x92DCECC2D8D2C840D0D2E6E8DEE4F240D2DCC8CAF PUSH1 0x5B SHL PUSH1 0x44 DUP3 ADD MSTORE PUSH1 0x64 ADD PUSH2 0x2D9 JUMP JUMPDEST PUSH1 0x1 PUSH1 0x1 PUSH1 0xA0 SHL SUB DUP4 AND PUSH1 0x0 SWAP1 DUP2 MSTORE PUSH1 0x4 PUSH1 0x20 MSTORE PUSH1 0x40 SWAP1 KECCAK256 DUP1 SLOAD DUP4 SWAP1 DUP2 LT PUSH2 0x4E9 JUMPI PUSH2 0x4E9 PUSH2 0xF92 JUMP JUMPDEST SWAP1 PUSH1 0x0 MSTORE PUSH1 0x20 PUSH1 0x0 KECCAK256 SWAP1 PUSH1 0x3 MUL ADD PUSH1 0x40 MLOAD DUP1 PUSH1 0x60 ADD PUSH1 0x40 MSTORE SWAP1 DUP2 PUSH1 0x0 DUP3 ADD DUP1 SLOAD PUSH2 0x512 SWAP1 PUSH2 0xFA8 JUMP JUMPDEST DUP1 PUSH1 0x1F ADD PUSH1 0x20 DUP1 SWAP2 DIV MUL PUSH1 0x20 ADD PUSH1 0x40 MLOAD SWAP1 DUP2 ADD PUSH1 0x40 MSTORE DUP1 SWAP3 SWAP2 SWAP1 DUP2 DUP2 MSTORE PUSH1 0x20 ADD DUP3 DUP1 SLOAD PUSH2 0x53E SWAP1 PUSH2 0xFA8 JUMP JUMPDEST DUP1 ISZERO PUSH2 0x58B JUMPI DUP1 PUSH1 0x1F LT PUSH2 0x560 JUMPI PUSH2 0x100 DUP1 DUP4 SLOAD DIV MUL DUP4 MSTORE SWAP2 PUSH1 0x20 ADD SWAP2 PUSH2 0x58B JUMP JUMPDEST DUP3 ADD SWAP2 SWAP1 PUSH1 0x0 MSTORE PUSH1 0x20 PUSH1 0x0 KECCAK256 SWAP1 JUMPDEST DUP2 SLOAD DUP2 MSTORE SWAP1 PUSH1 0x1 ADD SWAP1 PUSH1 0x20 ADD DUP1 DUP4 GT PUSH2 0x56E JUMPI DUP3 SWAP1 SUB PUSH1 0x1F AND DUP3 ADD SWAP2 JUMPDEST POP POP POP POP POP DUP2 MSTORE PUSH1 0x20 ADD PUSH1 0x1 DUP3 ADD SLOAD DUP2 MSTORE PUSH1 0x20 ADD PUSH1 0x2 DUP3 ADD SLOAD DUP2 MSTORE POP POP SWAP1 POP SWAP3 SWAP2 POP POP JUMP JUMPDEST PUSH2 0x5B8 PUSH2 0xB7F JUMP JUMPDEST PUSH2 0x5C2 PUSH1 0x0 PUSH2 0xBAC JUMP JUMPDEST JUMP JUMPDEST CALLER PUSH1 0x0 SWAP1 DUP2 MSTORE PUSH1 0x1 PUSH1 0x20 MSTORE PUSH1 0x40 SWAP1 KECCAK256 SLOAD PUSH1 0xFF AND PUSH2 0x5F3 JUMPI PUSH1 0x40 MLOAD PUSH3 0x461BCD PUSH1 0xE5 SHL DUP2 MSTORE PUSH1 0x4 ADD PUSH2 0x2D9 SWAP1 PUSH2 0xF24 JUMP JUMPDEST PUSH1 0x1 PUSH1 0x1 PUSH1 0xA0 SHL SUB DUP7 AND PUSH1 0x0 SWAP1 DUP2 MSTORE PUSH1 0x2 PUSH1 0x20 MSTORE PUSH1 0x40 SWAP1 KECCAK256 SLOAD PUSH1 0xFF AND PUSH2 0x62B JUMPI PUSH1 0x40 MLOAD PUSH3 0x461BCD PUSH1 0xE5 SHL DUP2 MSTORE PUSH1 0x4 ADD PUSH2 0x2D9 SWAP1 PUSH2 0xF5B JUMP JUMPDEST PUSH1 0x40 DUP1 MLOAD PUSH1 0xC0 DUP2 ADD DUP3 MSTORE DUP7 DUP2 MSTORE PUSH1 0x20 DUP1 DUP3 ADD DUP8 SWAP1 MSTORE DUP2 DUP4 ADD DUP7 SWAP1 MSTORE PUSH1 0x60 DUP3 ADD DUP6 SWAP1 MSTORE PUSH1 0x80 DUP3 ADD DUP5 SWAP1 MSTORE PUSH1 0x1 PUSH1 0xA0 DUP4 ADD MSTORE PUSH1 0x1 PUSH1 0x1 PUSH1 0xA0 SHL SUB DUP10 AND PUSH1 0x0 SWAP1 DUP2 MSTORE PUSH1 0x3 SWAP1 SWAP2 MSTORE SWAP2 SWAP1 SWAP2 KECCAK256 DUP2 MLOAD DUP2 SWAP1 PUSH2 0x681 SWAP1 DUP3 PUSH2 0x1031 JUMP JUMPDEST POP PUSH1 0x20 DUP3 ADD MLOAD PUSH1 0x1 DUP3 ADD SSTORE PUSH1 0x40 DUP3 ADD MLOAD PUSH1 0x2 DUP3 ADD SWAP1 PUSH2 0x6A0 SWAP1 DUP3 PUSH2 0x1031 JUMP JUMPDEST POP PUSH1 0x60 DUP3 ADD MLOAD PUSH1 0x3 DUP3 ADD SSTORE PUSH1 0x80 DUP3 ADD MLOAD PUSH1 0x4 DUP3 ADD SSTORE PUSH1 0xA0 SWAP1 SWAP2 ADD MLOAD PUSH1 0x5 SWAP1 SWAP2 ADD DUP1 SLOAD PUSH1 0xFF NOT AND SWAP2 ISZERO ISZERO SWAP2 SWAP1 SWAP2 OR SWAP1 SSTORE PUSH1 0x40 MLOAD PUSH1 0x1 PUSH1 0x1 PUSH1 0xA0 SHL SUB DUP8 AND SWAP1 PUSH32 0x8FFD9376E572D2CD948E8DF053CE15A3C059DF524BC670E3C4902812310EDE18 SWAP1 PUSH1 0x0 SWAP1 LOG2 POP POP POP POP POP POP JUMP JUMPDEST PUSH1 0x3 PUSH1 0x20 MSTORE PUSH1 0x0 SWAP1 DUP2 MSTORE PUSH1 0x40 SWAP1 KECCAK256 DUP1 SLOAD DUP2 SWAP1 PUSH2 0x726 SWAP1 PUSH2 0xFA8 JUMP JUMPDEST DUP1 PUSH1 0x1F ADD PUSH1 0x20 DUP1 SWAP2 DIV MUL PUSH1 0x20 ADD PUSH1 0x40 MLOAD SWAP1 DUP2 ADD PUSH1 0x40 MSTORE DUP1 SWAP3 SWAP2 SWAP1 DUP2 DUP2 MSTORE PUSH1 0x20 ADD DUP3 DUP1 SLOAD PUSH2 0x752 SWAP1 PUSH2 0xFA8 JUMP JUMPDEST DUP1 ISZERO PUSH2 0x79F JUMPI DUP1 PUSH1 0x1F LT PUSH2 0x774 JUMPI PUSH2 0x100 DUP1 DUP4 SLOAD DIV MUL DUP4 MSTORE SWAP2 PUSH1 0x20 ADD SWAP2 PUSH2 0x79F JUMP JUMPDEST DUP3 ADD SWAP2 SWAP1 PUSH1 0x0 MSTORE PUSH1 0x20 PUSH1 0x0 KECCAK256 SWAP1 JUMPDEST DUP2 SLOAD DUP2 MSTORE SWAP1 PUSH1 0x1 ADD SWAP1 PUSH1 0x20 ADD DUP1 DUP4 GT PUSH2 0x782 JUMPI DUP3 SWAP1 SUB PUSH1 0x1F AND DUP3 ADD SWAP2 JUMPDEST POP POP POP POP POP SWAP1 DUP1 PUSH1 0x1 ADD SLOAD SWAP1 DUP1 PUSH1 0x2 ADD DUP1 SLOAD PUSH2 0x7BA SWAP1 PUSH2 0xFA8 JUMP JUMPDEST DUP1 PUSH1 0x1F ADD PUSH1 0x20 DUP1 SWAP2 DIV MUL PUSH1 0x20 ADD PUSH1 0x40 MLOAD SWAP1 DUP2 ADD PUSH1 0x40 MSTORE DUP1 SWAP3 SWAP2 SWAP1 DUP2 DUP2 MSTORE PUSH1 0x20 ADD DUP3 DUP1 SLOAD PUSH2 0x7E6 SWAP1 PUSH2 0xFA8 JUMP JUMPDEST DUP1 ISZERO PUSH2 0x833 JUMPI DUP1 PUSH1 0x1F LT PUSH2 0x808 JUMPI PUSH2 0x100 DUP1 DUP4 SLOAD DIV MUL DUP4 MSTORE SWAP2 PUSH1 0x20 ADD SWAP2 PUSH2 0x833 JUMP JUMPDEST DUP3 ADD SWAP2 SWAP1 PUSH1 0x0 MSTORE PUSH1 0x20 PUSH1 0x0 KECCAK256 SWAP1 JUMPDEST DUP2 SLOAD DUP2 MSTORE SWAP1 PUSH1 0x1 ADD SWAP1 PUSH1 0x20 ADD DUP1 DUP4 GT PUSH2 0x816 JUMPI DUP3 SWAP1 SUB PUSH1 0x1F AND DUP3 ADD SWAP2 JUMPDEST POP POP POP POP PUSH1 0x3 DUP4 ADD SLOAD PUSH1 0x4 DUP5 ADD SLOAD PUSH1 0x5 SWAP1 SWAP5 ADD SLOAD SWAP3 SWAP4 SWAP1 SWAP3 SWAP1 SWAP2 POP PUSH1 0xFF AND DUP7 JUMP JUMPDEST PUSH1 0x4 PUSH1 0x20 MSTORE DUP2 PUSH1 0x0 MSTORE PUSH1 0x40 PUSH1 0x0 KECCAK256 DUP2 DUP2 SLOAD DUP2 LT PUSH2 0x870 JUMPI PUSH1 0x0 DUP1 REVERT JUMPDEST SWAP1 PUSH1 0x0 MSTORE PUSH1 0x20 PUSH1 0x0 KECCAK256 SWAP1 PUSH1 0x3 MUL ADD PUSH1 0x0 SWAP2 POP SWAP2 POP POP DUP1 PUSH1 0x0 ADD DUP1 SLOAD PUSH2 0x894 SWAP1 PUSH2 0xFA8 JUMP JUMPDEST DUP1 PUSH1 0x1F ADD PUSH1 0x20 DUP1 SWAP2 DIV MUL PUSH1 0x20 ADD PUSH1 0x40 MLOAD SWAP1 DUP2 ADD PUSH1 0x40 MSTORE DUP1 SWAP3 SWAP2 SWAP1 DUP2 DUP2 MSTORE PUSH1 0x20 ADD DUP3 DUP1 SLOAD PUSH2 0x8C0 SWAP1 PUSH2 0xFA8 JUMP JUMPDEST DUP1 ISZERO PUSH2 0x90D JUMPI DUP1 PUSH1 0x1F LT PUSH2 0x8E2 JUMPI PUSH2 0x100 DUP1 DUP4 SLOAD DIV MUL DUP4 MSTORE SWAP2 PUSH1 0x20 ADD SWAP2 PUSH2 0x90D JUMP JUMPDEST DUP3 ADD SWAP2 SWAP1 PUSH1 0x0 MSTORE PUSH1 0x20 PUSH1 0x0 KECCAK256 SWAP1 JUMPDEST DUP2 SLOAD DUP2 MSTORE SWAP1 PUSH1 0x1 ADD SWAP1 PUSH1 0x20 ADD DUP1 DUP4 GT PUSH2 0x8F0 JUMPI DUP3 SWAP1 SUB PUSH1 0x1F AND DUP3 ADD SWAP2 JUMPDEST POP POP POP POP POP SWAP1 DUP1 PUSH1 0x1 ADD SLOAD SWAP1 DUP1 PUSH1 0x2 ADD SLOAD SWAP1 POP DUP4 JUMP JUMPDEST CALLER PUSH1 0x0 SWAP1 DUP2 MSTORE PUSH1 0x1 PUSH1 0x20 MSTORE PUSH1 0x40 SWAP1 KECCAK256 SLOAD PUSH1 0xFF AND PUSH2 0x952 JUMPI PUSH1 0x40 MLOAD PUSH3 0x461BCD PUSH1 0xE5 SHL DUP2 MSTORE PUSH1 0x4 ADD PUSH2 0x2D9 SWAP1 PUSH2 0xF24 JUMP JUMPDEST PUSH1 0x1 PUSH1 0x1 PUSH1 0xA0 SHL SUB DUP2 AND PUSH1 0x0 SWAP1 DUP2 MSTORE PUSH1 0x2 PUSH1 0x20 MSTORE PUSH1 0x40 SWAP1 KECCAK256 SLOAD PUSH1 0xFF AND ISZERO PUSH2 0x9BB JUMPI PUSH1 0x40 MLOAD PUSH3 0x461BCD PUSH1 0xE5 SHL DUP2 MSTORE PUSH1 0x20 PUSH1 0x4 DUP3 ADD DUP2 SWAP1 MSTORE PUSH1 0x24 DUP3 ADD MSTORE PUSH32 0x4164647265737320697320616C726561647920612062656E6566696369617279 PUSH1 0x44 DUP3 ADD MSTORE PUSH1 0x64 ADD PUSH2 0x2D9 JUMP JUMPDEST PUSH1 0x1 PUSH1 0x1 PUSH1 0xA0 SHL SUB DUP2 AND PUSH1 0x0 DUP2 DUP2 MSTORE PUSH1 0x2 PUSH1 0x20 MSTORE PUSH1 0x40 DUP1 DUP3 KECCAK256 DUP1 SLOAD PUSH1 0xFF NOT AND PUSH1 0x1 OR SWAP1 SSTORE MLOAD PUSH32 0x329AD8638175CF0EC9495317A92731A014F08F8EA5AE6446AAA77BDD21A0F83C SWAP2 SWAP1 LOG2 POP JUMP JUMPDEST PUSH2 0xA0F PUSH2 0xB7F JUMP JUMPDEST PUSH1 0x1 PUSH1 0x1 PUSH1 0xA0 SHL SUB DUP2 AND PUSH2 0xA39 JUMPI PUSH1 0x40 MLOAD PUSH4 0x1E4FBDF7 PUSH1 0xE0 SHL DUP2 MSTORE PUSH1 0x0 PUSH1 0x4 DUP3 ADD MSTORE PUSH1 0x24 ADD PUSH2 0x2D9 JUMP JUMPDEST PUSH2 0xA42 DUP2 PUSH2 0xBAC JUMP JUMPDEST POP JUMP JUMPDEST CALLER PUSH1 0x0 SWAP1 DUP2 MSTORE PUSH1 0x1 PUSH1 0x20 MSTORE PUSH1 0x40 SWAP1 KECCAK256 SLOAD PUSH1 0xFF AND PUSH2 0xA74 JUMPI PUSH1 0x40 MLOAD PUSH3 0x461BCD PUSH1 0xE5 SHL DUP2 MSTORE PUSH1 0x4 ADD PUSH2 0x2D9 SWAP1 PUSH2 0xF24 JUMP JUMPDEST PUSH1 0x1 PUSH1 0x1 PUSH1 0xA0 SHL SUB DUP5 AND PUSH1 0x0 SWAP1 DUP2 MSTORE PUSH1 0x2 PUSH1 0x20 MSTORE PUSH1 0x40 SWAP1 KECCAK256 SLOAD PUSH1 0xFF AND PUSH2 0xAAC JUMPI PUSH1 0x40 MLOAD PUSH3 0x461BCD PUSH1 0xE5 SHL DUP2 MSTORE PUSH1 0x4 ADD PUSH2 0x2D9 SWAP1 PUSH2 0xF5B JUMP JUMPDEST PUSH1 0x1 PUSH1 0x1 PUSH1 0xA0 SHL SUB DUP5 AND PUSH1 0x0 SWAP1 DUP2 MSTORE PUSH1 0x4 PUSH1 0x20 SWAP1 DUP2 MSTORE PUSH1 0x40 DUP1 DUP4 KECCAK256 DUP2 MLOAD PUSH1 0x60 DUP2 ADD DUP4 MSTORE DUP8 DUP2 MSTORE DUP1 DUP5 ADD DUP8 SWAP1 MSTORE SWAP2 DUP3 ADD DUP6 SWAP1 MSTORE DUP1 SLOAD PUSH1 0x1 DUP2 ADD DUP3 SSTORE SWAP1 DUP5 MSTORE SWAP2 SWAP1 SWAP3 KECCAK256 DUP3 MLOAD PUSH1 0x3 SWAP1 SWAP3 MUL ADD SWAP1 DUP2 SWAP1 PUSH2 0xB02 SWAP1 DUP3 PUSH2 0x1031 JUMP JUMPDEST POP PUSH1 0x20 DUP3 DUP2 ADD MLOAD PUSH1 0x1 DUP4 ADD SSTORE PUSH1 0x40 SWAP3 DUP4 ADD MLOAD PUSH1 0x2 SWAP1 SWAP3 ADD SWAP2 SWAP1 SWAP2 SSTORE PUSH1 0x1 PUSH1 0x1 PUSH1 0xA0 SHL SUB DUP7 AND PUSH1 0x0 SWAP1 DUP2 MSTORE PUSH1 0x5 SWAP1 SWAP2 MSTORE SWAP1 DUP2 KECCAK256 DUP1 SLOAD SWAP2 PUSH2 0xB40 DUP4 PUSH2 0x10F1 JUMP JUMPDEST SWAP1 SWAP2 SSTORE POP POP PUSH1 0x40 MLOAD PUSH1 0x1 PUSH1 0x1 PUSH1 0xA0 SHL SUB DUP6 AND SWAP1 PUSH32 0x531847428C0372444C153E698BCD00FD171F4278DEE278891B7D38F56D4B3ACE SWAP1 PUSH1 0x0 SWAP1 LOG2 POP POP POP POP JUMP JUMPDEST PUSH1 0x0 SLOAD PUSH1 0x1 PUSH1 0x1 PUSH1 0xA0 SHL SUB AND CALLER EQ PUSH2 0x5C2 JUMPI PUSH1 0x40 MLOAD PUSH4 0x118CDAA7 PUSH1 0xE0 SHL DUP2 MSTORE CALLER PUSH1 0x4 DUP3 ADD MSTORE PUSH1 0x24 ADD PUSH2 0x2D9 JUMP JUMPDEST PUSH1 0x0 DUP1 SLOAD PUSH1 0x1 PUSH1 0x1 PUSH1 0xA0 SHL SUB DUP4 DUP2 AND PUSH1 0x1 PUSH1 0x1 PUSH1 0xA0 SHL SUB NOT DUP4 AND DUP2 OR DUP5 SSTORE PUSH1 0x40 MLOAD SWAP2 SWAP1 SWAP3 AND SWAP3 DUP4 SWAP2 PUSH32 0x8BE0079C531659141344CD1FD0A4F28419497F9722A3DAAFE3B4186F6B6457E0 SWAP2 SWAP1 LOG3 POP POP JUMP JUMPDEST DUP1 CALLDATALOAD PUSH1 0x1 PUSH1 0x1 PUSH1 0xA0 SHL SUB DUP2 AND DUP2 EQ PUSH2 0xC13 JUMPI PUSH1 0x0 DUP1 REVERT JUMPDEST SWAP2 SWAP1 POP JUMP JUMPDEST PUSH1 0x0 DUP1 PUSH1 0x40 DUP4 DUP6 SUB SLT ISZERO PUSH2 0xC2B JUMPI PUSH1 0x0 DUP1 REVERT JUMPDEST PUSH2 0xC34 DUP4 PUSH2 0xBFC JUMP JUMPDEST SWAP2 POP PUSH1 0x20 DUP4 ADD CALLDATALOAD DUP1 ISZERO ISZERO DUP2 EQ PUSH2 0xC49 JUMPI PUSH1 0x0 DUP1 REVERT JUMPDEST DUP1 SWAP2 POP POP SWAP3 POP SWAP3 SWAP1 POP JUMP JUMPDEST PUSH1 0x0 PUSH1 0x20 DUP3 DUP5 SUB SLT ISZERO PUSH2 0xC66 JUMPI PUSH1 0x0 DUP1 REVERT JUMPDEST PUSH2 0xC6F DUP3 PUSH2 0xBFC JUMP JUMPDEST SWAP4 SWAP3 POP POP POP JUMP JUMPDEST PUSH1 0x0 DUP1 PUSH1 0x40 DUP4 DUP6 SUB SLT ISZERO PUSH2 0xC89 JUMPI PUSH1 0x0 DUP1 REVERT JUMPDEST PUSH2 0xC92 DUP4 PUSH2 0xBFC JUMP JUMPDEST SWAP5 PUSH1 0x20 SWAP4 SWAP1 SWAP4 ADD CALLDATALOAD SWAP4 POP POP POP JUMP JUMPDEST PUSH1 0x0 DUP2 MLOAD DUP1 DUP5 MSTORE PUSH1 0x0 JUMPDEST DUP2 DUP2 LT ISZERO PUSH2 0xCC6 JUMPI PUSH1 0x20 DUP2 DUP6 ADD DUP2 ADD MLOAD DUP7 DUP4 ADD DUP3 ADD MSTORE ADD PUSH2 0xCAA JUMP JUMPDEST POP PUSH1 0x0 PUSH1 0x20 DUP3 DUP7 ADD ADD MSTORE PUSH1 0x20 PUSH1 0x1F NOT PUSH1 0x1F DUP4 ADD AND DUP6 ADD ADD SWAP2 POP POP SWAP3 SWAP2 POP POP JUMP JUMPDEST PUSH1 0x20 DUP2 MSTORE PUSH1 0x0 DUP3 MLOAD PUSH1 0x60 PUSH1 0x20 DUP5 ADD MSTORE PUSH2 0xD02 PUSH1 0x80 DUP5 ADD DUP3 PUSH2 0xCA0 JUMP JUMPDEST SWAP1 POP PUSH1 0x20 DUP5 ADD MLOAD PUSH1 0x40 DUP5 ADD MSTORE PUSH1 0x40 DUP5 ADD MLOAD PUSH1 0x60 DUP5 ADD MSTORE DUP1 SWAP2 POP POP SWAP3 SWAP2 POP POP JUMP JUMPDEST PUSH4 0x4E487B71 PUSH1 0xE0 SHL PUSH1 0x0 MSTORE PUSH1 0x41 PUSH1 0x4 MSTORE PUSH1 0x24 PUSH1 0x0 REVERT JUMPDEST PUSH1 0x0 DUP3 PUSH1 0x1F DUP4 ADD SLT PUSH2 0xD49 JUMPI PUSH1 0x0 DUP1 REVERT JUMPDEST DUP2 CALLDATALOAD PUSH8 0xFFFFFFFFFFFFFFFF DUP1 DUP3 GT ISZERO PUSH2 0xD64 JUMPI PUSH2 0xD64 PUSH2 0xD22 JUMP JUMPDEST PUSH1 0x40 MLOAD PUSH1 0x1F DUP4 ADD PUSH1 0x1F NOT SWAP1 DUP2 AND PUSH1 0x3F ADD AND DUP2 ADD SWAP1 DUP3 DUP3 GT DUP2 DUP4 LT OR ISZERO PUSH2 0xD8C JUMPI PUSH2 0xD8C PUSH2 0xD22 JUMP JUMPDEST DUP2 PUSH1 0x40 MSTORE DUP4 DUP2 MSTORE DUP7 PUSH1 0x20 DUP6 DUP9 ADD ADD GT ISZERO PUSH2 0xDA5 JUMPI PUSH1 0x0 DUP1 REVERT JUMPDEST DUP4 PUSH1 0x20 DUP8 ADD PUSH1 0x20 DUP4 ADD CALLDATACOPY PUSH1 0x0 PUSH1 0x20 DUP6 DUP4 ADD ADD MSTORE DUP1 SWAP5 POP POP POP POP POP SWAP3 SWAP2 POP POP JUMP JUMPDEST PUSH1 0x0 DUP1 PUSH1 0x0 DUP1 PUSH1 0x0 DUP1 PUSH1 0xC0 DUP8 DUP10 SUB SLT ISZERO PUSH2 0xDDE JUMPI PUSH1 0x0 DUP1 REVERT JUMPDEST PUSH2 0xDE7 DUP8 PUSH2 0xBFC JUMP JUMPDEST SWAP6 POP PUSH1 0x20 DUP8 ADD CALLDATALOAD PUSH8 0xFFFFFFFFFFFFFFFF DUP1 DUP3 GT ISZERO PUSH2 0xE04 JUMPI PUSH1 0x0 DUP1 REVERT JUMPDEST PUSH2 0xE10 DUP11 DUP4 DUP12 ADD PUSH2 0xD38 JUMP JUMPDEST SWAP7 POP PUSH1 0x40 DUP10 ADD CALLDATALOAD SWAP6 POP PUSH1 0x60 DUP10 ADD CALLDATALOAD SWAP2 POP DUP1 DUP3 GT ISZERO PUSH2 0xE2D JUMPI PUSH1 0x0 DUP1 REVERT JUMPDEST POP PUSH2 0xE3A DUP10 DUP3 DUP11 ADD PUSH2 0xD38 JUMP JUMPDEST SWAP4 POP POP PUSH1 0x80 DUP8 ADD CALLDATALOAD SWAP2 POP PUSH1 0xA0 DUP8 ADD CALLDATALOAD SWAP1 POP SWAP3 SWAP6 POP SWAP3 SWAP6 POP SWAP3 SWAP6 JUMP JUMPDEST PUSH1 0xC0 DUP2 MSTORE PUSH1 0x0 PUSH2 0xE68 PUSH1 0xC0 DUP4 ADD DUP10 PUSH2 0xCA0 JUMP JUMPDEST DUP8 PUSH1 0x20 DUP5 ADD MSTORE DUP3 DUP2 SUB PUSH1 0x40 DUP5 ADD MSTORE PUSH2 0xE80 DUP2 DUP9 PUSH2 0xCA0 JUMP JUMPDEST PUSH1 0x60 DUP5 ADD SWAP7 SWAP1 SWAP7 MSTORE POP POP PUSH1 0x80 DUP2 ADD SWAP3 SWAP1 SWAP3 MSTORE ISZERO ISZERO PUSH1 0xA0 SWAP1 SWAP2 ADD MSTORE SWAP4 SWAP3 POP POP POP JUMP JUMPDEST PUSH1 0x60 DUP2 MSTORE PUSH1 0x0 PUSH2 0xEB4 PUSH1 0x60 DUP4 ADD DUP7 PUSH2 0xCA0 JUMP JUMPDEST PUSH1 0x20 DUP4 ADD SWAP5 SWAP1 SWAP5 MSTORE POP PUSH1 0x40 ADD MSTORE SWAP2 SWAP1 POP JUMP JUMPDEST PUSH1 0x0 DUP1 PUSH1 0x0 DUP1 PUSH1 0x80 DUP6 DUP8 SUB SLT ISZERO PUSH2 0xEDC JUMPI PUSH1 0x0 DUP1 REVERT JUMPDEST PUSH2 0xEE5 DUP6 PUSH2 0xBFC JUMP JUMPDEST SWAP4 POP PUSH1 0x20 DUP6 ADD CALLDATALOAD PUSH8 0xFFFFFFFFFFFFFFFF DUP2 GT ISZERO PUSH2 0xF01 JUMPI PUSH1 0x0 DUP1 REVERT JUMPDEST PUSH2 0xF0D DUP8 DUP3 DUP9 ADD PUSH2 0xD38 JUMP JUMPDEST SWAP5 SWAP8 SWAP5 SWAP7 POP POP POP POP PUSH1 0x40 DUP4 ADD CALLDATALOAD SWAP3 PUSH1 0x60 ADD CALLDATALOAD SWAP2 SWAP1 POP JUMP JUMPDEST PUSH1 0x20 DUP1 DUP3 MSTORE PUSH1 0x18 SWAP1 DUP3 ADD MSTORE PUSH32 0x43616C6C6572206973206E6F742061206D696E69737472790000000000000000 PUSH1 0x40 DUP3 ADD MSTORE PUSH1 0x60 ADD SWAP1 JUMP JUMPDEST PUSH1 0x20 DUP1 DUP3 MSTORE PUSH1 0x1C SWAP1 DUP3 ADD MSTORE PUSH32 0x41646472657373206973206E6F7420612062656E656669636961727900000000 PUSH1 0x40 DUP3 ADD MSTORE PUSH1 0x60 ADD SWAP1 JUMP JUMPDEST PUSH4 0x4E487B71 PUSH1 0xE0 SHL PUSH1 0x0 MSTORE PUSH1 0x32 PUSH1 0x4 MSTORE PUSH1 0x24 PUSH1 0x0 REVERT JUMPDEST PUSH1 0x1 DUP2 DUP2 SHR SWAP1 DUP3 AND DUP1 PUSH2 0xFBC JUMPI PUSH1 0x7F DUP3 AND SWAP2 POP JUMPDEST PUSH1 0x20 DUP3 LT DUP2 SUB PUSH2 0xFDC JUMPI PUSH4 0x4E487B71 PUSH1 0xE0 SHL PUSH1 0x0 MSTORE PUSH1 0x22 PUSH1 0x4 MSTORE PUSH1 0x24 PUSH1 0x0 REVERT JUMPDEST POP SWAP2 SWAP1 POP JUMP JUMPDEST PUSH1 0x1F DUP3 GT ISZERO PUSH2 0x102C JUMPI PUSH1 0x0 DUP2 DUP2 MSTORE PUSH1 0x20 DUP2 KECCAK256 PUSH1 0x1F DUP6 ADD PUSH1 0x5 SHR DUP2 ADD PUSH1 0x20 DUP7 LT ISZERO PUSH2 0x1009 JUMPI POP DUP1 JUMPDEST PUSH1 0x1F DUP6 ADD PUSH1 0x5 SHR DUP3 ADD SWAP2 POP JUMPDEST DUP2 DUP2 LT ISZERO PUSH2 0x1028 JUMPI DUP3 DUP2 SSTORE PUSH1 0x1 ADD PUSH2 0x1015 JUMP JUMPDEST POP POP POP JUMPDEST POP POP POP JUMP JUMPDEST DUP2 MLOAD PUSH8 0xFFFFFFFFFFFFFFFF DUP2 GT ISZERO PUSH2 0x104B JUMPI PUSH2 0x104B PUSH2 0xD22 JUMP JUMPDEST PUSH2 0x105F DUP2 PUSH2 0x1059 DUP5 SLOAD PUSH2 0xFA8 JUMP JUMPDEST DUP5 PUSH2 0xFE2 JUMP JUMPDEST PUSH1 0x20 DUP1 PUSH1 0x1F DUP4 GT PUSH1 0x1 DUP2 EQ PUSH2 0x1094 JUMPI PUSH1 0x0 DUP5 ISZERO PUSH2 0x107C JUMPI POP DUP6 DUP4 ADD MLOAD JUMPDEST PUSH1 0x0 NOT PUSH1 0x3 DUP7 SWAP1 SHL SHR NOT AND PUSH1 0x1 DUP6 SWAP1 SHL OR DUP6 SSTORE PUSH2 0x1028 JUMP JUMPDEST PUSH1 0x0 DUP6 DUP2 MSTORE PUSH1 0x20 DUP2 KECCAK256 PUSH1 0x1F NOT DUP7 AND SWAP2 JUMPDEST DUP3 DUP2 LT ISZERO PUSH2 0x10C3 JUMPI DUP9 DUP7 ADD MLOAD DUP3 SSTORE SWAP5 DUP5 ADD SWAP5 PUSH1 0x1 SWAP1 SWAP2 ADD SWAP1 DUP5 ADD PUSH2 0x10A4 JUMP JUMPDEST POP DUP6 DUP3 LT ISZERO PUSH2 0x10E1 JUMPI DUP8 DUP6 ADD MLOAD PUSH1 0x0 NOT PUSH1 0x3 DUP9 SWAP1 SHL PUSH1 0xF8 AND SHR NOT AND DUP2 SSTORE JUMPDEST POP POP POP POP POP PUSH1 0x1 SWAP1 DUP2 SHL ADD SWAP1 SSTORE POP JUMP JUMPDEST PUSH1 0x0 PUSH1 0x1 DUP3 ADD PUSH2 0x1111 JUMPI PUSH4 0x4E487B71 PUSH1 0xE0 SHL PUSH1 0x0 MSTORE PUSH1 0x11 PUSH1 0x4 MSTORE PUSH1 0x24 PUSH1 0x0 REVERT JUMPDEST POP PUSH1 0x1 ADD SWAP1 JUMP INVALID LOG2 PUSH5 0x6970667358 0x22 SLT KECCAK256 DUP3 PC 0xD3 REVERT DUP14 0xD8 GAS CREATE 0xCD NUMBER 0xE3 DUP1 0xF6 SWAP8 SWAP3 DUP2 0xA5 0x1F 0xE3 0x2E PUSH19 0x65CCEACE66C7EF6CFD35AB64736F6C63430008 EQ STOP CALLER "},"methodIdentifiers":{"addBeneficiaryHistory(address,string,uint256,uint256)":"f7f31d22","beneficiaryHistory(address,uint256)":"9d79fdb2","beneficiaryHistoryCount(address)":"a40a5252","beneficiaryInfo(address)":"894c6e4d","getBeneficiaryHistory(address,uint256)":"67208ad6","getBeneficiaryHistoryCount(address)":"9983c36f","isBeneficiary(address)":"9d19b226","isMinistry(address)":"5ee68a22","owner()":"8da5cb5b","registerBeneficiary(address)":"cdd8b2b2","registerMinistry(address)":"4a731393","renounceOwnership()":"715018a6","transferOwnership(address)":"f2fde38b","updateBeneficiaryInfo(address,string,uint256,string,uint256,uint256)":"76f3347e","updateBeneficiaryStatus(address,bool)":"3a889886"}}}}}