{
  "_format": "hh-sol-artifact-1",
  "contractName": "WelfareDistribution",
  "sourceName": "contracts/WelfareDistribution.sol",
  "abi": [
    {
      "inputs": [
        {
          "internalType": "address",
          "name": "_welfareToken",
          "type": "address"
        }
      ],
      "stateMutability": "nonpayable",
      "type": "constructor"
    },
    {
      "inputs": [
        {
          "internalType": "address",
          "name": "owner",
          "type": "address"
        }
      ],
      "name": "OwnableInvalidOwner",
      "type": "error"
    },
    {
      "inputs": [
        {
          "internalType": "address",
          "name": "account",
          "type": "address"
        }
      ],
      "name": "OwnableUnauthorizedAccount",
      "type": "error"
    },
    {
      "anonymous": false,
      "inputs": [
        {
          "indexed": true,
          "internalType": "address",
          "name": "beneficiary",
          "type": "address"
        }
      ],
      "name": "BeneficiaryRegistered",
      "type": "event"
    },
    {
      "anonymous": false,
      "inputs": [
        {
          "indexed": true,
          "internalType": "address",
          "name": "ministry",
          "type": "address"
        }
      ],
      "name": "MinistryRegistered",
      "type": "event"
    },
    {
      "anonymous": false,
      "inputs": [
        {
          "indexed": true,
          "internalType": "address",
          "name": "previousOwner",
          "type": "address"
        },
        {
          "indexed": true,
          "internalType": "address",
          "name": "newOwner",
          "type": "address"
        }
      ],
      "name": "OwnershipTransferred",
      "type": "event"
    },
    {
      "anonymous": false,
      "inputs": [
        {
          "indexed": true,
          "internalType": "address",
          "name": "beneficiary",
          "type": "address"
        },
        {
          "indexed": false,
          "internalType": "uint256",
          "name": "amount",
          "type": "uint256"
        }
      ],
      "name": "WelfareDistributed",
      "type": "event"
    },
    {
      "inputs": [
        {
          "internalType": "address",
          "name": "beneficiary",
          "type": "address"
        },
        {
          "internalType": "uint256",
          "name": "amount",
          "type": "uint256"
        }
      ],
      "name": "distributeWelfare",
      "outputs": [],
      "stateMutability": "nonpayable",
      "type": "function"
    },
    {
      "inputs": [
        {
          "internalType": "address",
          "name": "",
          "type": "address"
        }
      ],
      "name": "isBeneficiary",
      "outputs": [
        {
          "internalType": "bool",
          "name": "",
          "type": "bool"
        }
      ],
      "stateMutability": "view",
      "type": "function"
    },
    {
      "inputs": [
        {
          "internalType": "address",
          "name": "",
          "type": "address"
        }
      ],
      "name": "isMinistry",
      "outputs": [
        {
          "internalType": "bool",
          "name": "",
          "type": "bool"
        }
      ],
      "stateMutability": "view",
      "type": "function"
    },
    {
      "inputs": [],
      "name": "owner",
      "outputs": [
        {
          "internalType": "address",
          "name": "",
          "type": "address"
        }
      ],
      "stateMutability": "view",
      "type": "function"
    },
    {
      "inputs": [
        {
          "internalType": "address",
          "name": "beneficiary",
          "type": "address"
        }
      ],
      "name": "registerBeneficiary",
      "outputs": [],
      "stateMutability": "nonpayable",
      "type": "function"
    },
    {
      "inputs": [
        {
          "internalType": "address",
          "name": "ministry",
          "type": "address"
        }
      ],
      "name": "registerMinistry",
      "outputs": [],
      "stateMutability": "nonpayable",
      "type": "function"
    },
    {
      "inputs": [],
      "name": "renounceOwnership",
      "outputs": [],
      "stateMutability": "nonpayable",
      "type": "function"
    },
    {
      "inputs": [
        {
          "internalType": "address",
          "name": "newOwner",
          "type": "address"
        }
      ],
      "name": "transferOwnership",
      "outputs": [],
      "stateMutability": "nonpayable",
      "type": "function"
    },
    {
      "inputs": [],
      "name": "welfareToken",
      "outputs": [
        {
          "internalType": "contract WelfareToken",
          "name": "",
          "type": "address"
        }
      ],
      "stateMutability": "view",
      "type": "function"
    },
    {
      "inputs": [
        {
          "internalType": "uint256",
          "name": "amount",
          "type": "uint256"
        }
      ],
      "name": "withdrawTokens",
      "outputs": [],
      "stateMutability": "nonpayable",
      "type": "function"
    }
  ],
  "bytecode": "0x608060405234801561001057600080fd5b50604051610a7d380380610a7d83398101604081905261002f916100d4565b338061005557604051631e4fbdf760e01b81526000600482015260240160405180910390fd5b61005e81610084565b50600180546001600160a01b0319166001600160a01b0392909216919091179055610104565b600080546001600160a01b038381166001600160a01b0319831681178455604051919092169283917f8be0079c531659141344cd1fd0a4f28419497f9722a3daafe3b4186f6b6457e09190a35050565b6000602082840312156100e657600080fd5b81516001600160a01b03811681146100fd57600080fd5b9392505050565b61096a806101136000396000f3fe608060405234801561001057600080fd5b506004361061009e5760003560e01c80638da5cb5b116100665780638da5cb5b146101365780639d19b22614610147578063a0c442161461016a578063cdd8b2b21461017d578063f2fde38b1461019057600080fd5b8063315a095d146100a35780634a731393146100b85780635a3092f8146100cb5780635ee68a22146100fb578063715018a61461012e575b600080fd5b6100b66100b1366004610878565b6101a3565b005b6100b66100c63660046108ad565b610352565b6001546100de906001600160a01b031681565b6040516001600160a01b0390911681526020015b60405180910390f35b61011e6101093660046108ad565b60026020526000908152604090205460ff1681565b60405190151581526020016100f2565b6100b661040f565b6000546001600160a01b03166100de565b61011e6101553660046108ad565b60036020526000908152604090205460ff1681565b6100b66101783660046108cf565b610423565b6100b661018b3660046108ad565b6106ae565b6100b661019e3660046108ad565b6107bd565b6101ab6107fb565b600081116102005760405162461bcd60e51b815260206004820152601d60248201527f416d6f756e74206d7573742062652067726561746572207468616e203000000060448201526064015b60405180910390fd5b6001546040516370a0823160e01b815230600482015282916001600160a01b0316906370a0823190602401602060405180830381865afa158015610248573d6000803e3d6000fd5b505050506040513d601f19601f8201168201806040525081019061026c91906108f9565b10156102ba5760405162461bcd60e51b815260206004820152601d60248201527f496e73756666696369656e7420636f6e74726163742062616c616e636500000060448201526064016101f7565b6001546001600160a01b031663a9059cbb6102dd6000546001600160a01b031690565b6040516001600160e01b031960e084901b1681526001600160a01b039091166004820152602481018490526044016020604051808303816000875af115801561032a573d6000803e3d6000fd5b505050506040513d601f19601f8201168201806040525081019061034e9190610912565b5050565b61035a6107fb565b6001600160a01b03811660009081526002602052604090205460ff16156103c35760405162461bcd60e51b815260206004820152601d60248201527f4164647265737320697320616c72656164792061206d696e697374727900000060448201526064016101f7565b6001600160a01b038116600081815260026020526040808220805460ff19166001179055517f80bef479f448790f02e59555bd742f260a7f1e754527e2a58fed0681aef7a0d99190a250565b6104176107fb565b6104216000610828565b565b3360009081526002602052604090205460ff1661047d5760405162461bcd60e51b815260206004820152601860248201527743616c6c6572206973206e6f742061206d696e697374727960401b60448201526064016101f7565b6001600160a01b03821660009081526003602052604090205460ff166104e55760405162461bcd60e51b815260206004820152601c60248201527f41646472657373206973206e6f7420612062656e65666963696172790000000060448201526064016101f7565b600081116105355760405162461bcd60e51b815260206004820152601d60248201527f416d6f756e74206d7573742062652067726561746572207468616e203000000060448201526064016101f7565b6001546040516370a0823160e01b815230600482015282916001600160a01b0316906370a0823190602401602060405180830381865afa15801561057d573d6000803e3d6000fd5b505050506040513d601f19601f820116820180604052508101906105a191906108f9565b10156105ef5760405162461bcd60e51b815260206004820152601d60248201527f496e73756666696369656e7420636f6e74726163742062616c616e636500000060448201526064016101f7565b60015460405163a9059cbb60e01b81526001600160a01b038481166004830152602482018490529091169063a9059cbb906044016020604051808303816000875af1158015610642573d6000803e3d6000fd5b505050506040513d601f19601f820116820180604052508101906106669190610912565b50816001600160a01b03167fd36f89b379bc97cb99893335c7d9c2fa8b0ae123b97aa183b118d2d63b4ec895826040516106a291815260200190565b60405180910390a25050565b3360009081526002602052604090205460ff166107085760405162461bcd60e51b815260206004820152601860248201527743616c6c6572206973206e6f742061206d696e697374727960401b60448201526064016101f7565b6001600160a01b03811660009081526003602052604090205460ff16156107715760405162461bcd60e51b815260206004820181905260248201527f4164647265737320697320616c726561647920612062656e656669636961727960448201526064016101f7565b6001600160a01b038116600081815260036020526040808220805460ff19166001179055517f329ad8638175cf0ec9495317a92731a014f08f8ea5ae6446aaa77bdd21a0f83c9190a250565b6107c56107fb565b6001600160a01b0381166107ef57604051631e4fbdf760e01b8152600060048201526024016101f7565b6107f881610828565b50565b6000546001600160a01b031633146104215760405163118cdaa760e01b81523360048201526024016101f7565b600080546001600160a01b038381166001600160a01b0319831681178455604051919092169283917f8be0079c531659141344cd1fd0a4f28419497f9722a3daafe3b4186f6b6457e09190a35050565b60006020828403121561088a57600080fd5b5035919050565b80356001600160a01b03811681146108a857600080fd5b919050565b6000602082840312156108bf57600080fd5b6108c882610891565b9392505050565b600080604083850312156108e257600080fd5b6108eb83610891565b946020939093013593505050565b60006020828403121561090b57600080fd5b5051919050565b60006020828403121561092457600080fd5b815180151581146108c857600080fdfea26469706673582212202ec9585fda442c662ec2060cb99bc5b1ec64be95722a5eeb87b42ec7a7156f0b64736f6c63430008140033",
  "linkReferences": {},
  "deployedLinkReferences": {}
}