{
  "_format": "hh-sol-artifact-1",
  "contractName": "SchemeRegistry",
  "sourceName": "contracts/SchemeRegistry.sol",
  "abi": [
    {
      "anonymous": false,
      "inputs": [
        {
          "indexed": true,
          "internalType": "bytes32",
          "name": "schemeId",
          "type": "bytes32"
        },
        {
          "indexed": true,
          "internalType": "address",
          "name": "applicant",
          "type": "address"
        }
      ],
      "name": "ApplicationApproved",
      "type": "event"
    },
    {
      "anonymous": false,
      "inputs": [
        {
          "indexed": true,
          "internalType": "bytes32",
          "name": "schemeId",
          "type": "bytes32"
        },
        {
          "indexed": true,
          "internalType": "address",
          "name": "applicant",
          "type": "address"
        }
      ],
      "name": "ApplicationRejected",
      "type": "event"
    },
    {
      "anonymous": false,
      "inputs": [
        {
          "indexed": true,
          "internalType": "bytes32",
          "name": "schemeId",
          "type": "bytes32"
        },
        {
          "indexed": true,
          "internalType": "address",
          "name": "applicant",
          "type": "address"
        }
      ],
      "name": "ApplicationSubmitted",
      "type": "event"
    },
    {
      "anonymous": false,
      "inputs": [
        {
          "indexed": true,
          "internalType": "address",
          "name": "ministryAddress",
          "type": "address"
        },
        {
          "indexed": false,
          "internalType": "string",
          "name": "name",
          "type": "string"
        }
      ],
      "name": "MinistryRegistered",
      "type": "event"
    },
    {
      "anonymous": false,
      "inputs": [
        {
          "indexed": true,
          "internalType": "bytes32",
          "name": "schemeId",
          "type": "bytes32"
        },
        {
          "indexed": false,
          "internalType": "string",
          "name": "name",
          "type": "string"
        },
        {
          "indexed": false,
          "internalType": "address",
          "name": "ministry",
          "type": "address"
        }
      ],
      "name": "SchemeCreated",
      "type": "event"
    },
    {
      "inputs": [
        {
          "internalType": "bytes32",
          "name": "_schemeId",
          "type": "bytes32"
        }
      ],
      "name": "applyForScheme",
      "outputs": [],
      "stateMutability": "nonpayable",
      "type": "function"
    },
    {
      "inputs": [
        {
          "internalType": "bytes32",
          "name": "_schemeId",
          "type": "bytes32"
        },
        {
          "internalType": "address",
          "name": "_applicant",
          "type": "address"
        }
      ],
      "name": "approveApplication",
      "outputs": [],
      "stateMutability": "nonpayable",
      "type": "function"
    },
    {
      "inputs": [
        {
          "internalType": "string",
          "name": "_name",
          "type": "string"
        },
        {
          "internalType": "string",
          "name": "_description",
          "type": "string"
        },
        {
          "internalType": "uint256",
          "name": "_maxBeneficiaries",
          "type": "uint256"
        }
      ],
      "name": "createScheme",
      "outputs": [],
      "stateMutability": "nonpayable",
      "type": "function"
    },
    {
      "inputs": [
        {
          "internalType": "bytes32",
          "name": "_schemeId",
          "type": "bytes32"
        }
      ],
      "name": "getSchemeDetails",
      "outputs": [
        {
          "internalType": "string",
          "name": "name",
          "type": "string"
        },
        {
          "internalType": "string",
          "name": "description",
          "type": "string"
        },
        {
          "internalType": "address",
          "name": "ministry",
          "type": "address"
        },
        {
          "internalType": "bool",
          "name": "isActive",
          "type": "bool"
        },
        {
          "internalType": "uint256",
          "name": "maxBeneficiaries",
          "type": "uint256"
        },
        {
          "internalType": "uint256",
          "name": "currentBeneficiaries",
          "type": "uint256"
        }
      ],
      "stateMutability": "view",
      "type": "function"
    },
    {
      "inputs": [
        {
          "internalType": "address",
          "name": "_user",
          "type": "address"
        }
      ],
      "name": "getUserApplications",
      "outputs": [
        {
          "internalType": "bytes32[]",
          "name": "",
          "type": "bytes32[]"
        }
      ],
      "stateMutability": "view",
      "type": "function"
    },
    {
      "inputs": [
        {
          "internalType": "bytes32",
          "name": "_schemeId",
          "type": "bytes32"
        },
        {
          "internalType": "address",
          "name": "_user",
          "type": "address"
        }
      ],
      "name": "isBeneficiary",
      "outputs": [
        {
          "internalType": "bool",
          "name": "",
          "type": "bool"
        }
      ],
      "stateMutability": "view",
      "type": "function"
    },
    {
      "inputs": [
        {
          "internalType": "address",
          "name": "",
          "type": "address"
        }
      ],
      "name": "ministries",
      "outputs": [
        {
          "internalType": "string",
          "name": "name",
          "type": "string"
        },
        {
          "internalType": "address",
          "name": "ministryAddress",
          "type": "address"
        },
        {
          "internalType": "bool",
          "name": "isActive",
          "type": "bool"
        }
      ],
      "stateMutability": "view",
      "type": "function"
    },
    {
      "inputs": [
        {
          "internalType": "string",
          "name": "_name",
          "type": "string"
        }
      ],
      "name": "registerMinistry",
      "outputs": [],
      "stateMutability": "nonpayable",
      "type": "function"
    },
    {
      "inputs": [
        {
          "internalType": "bytes32",
          "name": "_schemeId",
          "type": "bytes32"
        },
        {
          "internalType": "address",
          "name": "_applicant",
          "type": "address"
        }
      ],
      "name": "rejectApplication",
      "outputs": [],
      "stateMutability": "nonpayable",
      "type": "function"
    },
    {
      "inputs": [
        {
          "internalType": "bytes32",
          "name": "",
          "type": "bytes32"
        }
      ],
      "name": "schemes",
      "outputs": [
        {
          "internalType": "string",
          "name": "name",
          "type": "string"
        },
        {
          "internalType": "string",
          "name": "description",
          "type": "string"
        },
        {
          "internalType": "address",
          "name": "ministry",
          "type": "address"
        },
        {
          "internalType": "bool",
          "name": "isActive",
          "type": "bool"
        },
        {
          "internalType": "uint256",
          "name": "maxBeneficiaries",
          "type": "uint256"
        },
        {
          "internalType": "uint256",
          "name": "currentBeneficiaries",
          "type": "uint256"
        }
      ],
      "stateMutability": "view",
      "type": "function"
    },
    {
      "inputs": [
        {
          "internalType": "address",
          "name": "",
          "type": "address"
        },
        {
          "internalType": "uint256",
          "name": "",
          "type": "uint256"
        }
      ],
      "name": "userApplications",
      "outputs": [
        {
          "internalType": "bytes32",
          "name": "",
          "type": "bytes32"
        }
      ],
      "stateMutability": "view",
      "type": "function"
    }
  ],
  "bytecode": "0x608060405234801561001057600080fd5b506111cc806100206000396000f3fe608060405234801561001057600080fd5b50600436106100a95760003560e01c8063aad0c57f11610071578063aad0c57f1461016c578063ace82ce91461017f578063b7c36291146101a1578063c8631a5e146101c1578063d0d98cbb146101d4578063ea231da4146101e757600080fd5b80630d395eb9146100ae578063106758ce146100d45780632814371d146100e95780634d3d186d146100fc578063548e3d4614610147575b600080fd5b6100c16100bc366004610c97565b6101fa565b6040519081526020015b60405180910390f35b6100e76100e2366004610cc1565b61022b565b005b6100e76100f7366004610d90565b61030b565b61013761010a366004610cc1565b6000828152602081815260408083206001600160a01b038516845260050190915290205460ff1692915050565b60405190151581526020016100cb565b61015a610155366004610dcd565b610424565b6040516100cb96959493929190610e36565b6100e761017a366004610dcd565b61059e565b61019261018d366004610e8a565b610700565b6040516100cb93929190610eac565b6101b46101af366004610e8a565b6107ba565b6040516100cb9190610edf565b6100e76101cf366004610cc1565b610826565b61015a6101e2366004610dcd565b610a05565b6100e76101f5366004610f23565b610b59565b6002602052816000526040600020818154811061021657600080fd5b90600052602060002001600091509150505481565b3360009081526001602081905260409091200154600160a01b900460ff1661026e5760405162461bcd60e51b815260040161026590610f90565b60405180910390fd5b6000828152602081905260409020600201546001600160a01b031633146102d15760405162461bcd60e51b81526020600482015260176024820152764e6f742074686520736368656d65206d696e697374727960481b6044820152606401610265565b6040516001600160a01b0382169083907f27d0945fb3636f7a4272436530402ff31ba7a064fc919ac3cd28de806e88b27a90600090a35050565b3360009081526001602081905260409091200154600160a01b900460ff16156103765760405162461bcd60e51b815260206004820152601b60248201527f4d696e697374727920616c7265616479207265676973746572656400000000006044820152606401610265565b6040805160608101825282815233602080830182905260018385018190526000928352905291909120815181906103ad9082611050565b506020820151600190910180546040938401511515600160a01b026001600160a81b03199091166001600160a01b03909316929092179190911790555133907fe4e90484ea6540d08113864f7869ce81aac74d9b1b6a65740a48d4a381f60b9f90610419908490611110565b60405180910390a250565b6000818152602081905260408120600281015460038201546004830154835460609586959094859485948594849360018501936001600160a01b03821693600160a01b90920460ff1692909190869061047c90610fc7565b80601f01602080910402602001604051908101604052809291908181526020018280546104a890610fc7565b80156104f55780601f106104ca576101008083540402835291602001916104f5565b820191906000526020600020905b8154815290600101906020018083116104d857829003601f168201915b5050505050955084805461050890610fc7565b80601f016020809104026020016040519081016040528092919081815260200182805461053490610fc7565b80156105815780601f1061055657610100808354040283529160200191610581565b820191906000526020600020905b81548152906001019060200180831161056457829003601f168201915b505050505094509650965096509650965096505091939550919395565b600081815260208190526040902060020154600160a01b900460ff166105fd5760405162461bcd60e51b8152602060048201526014602482015273536368656d65206973206e6f742061637469766560601b6044820152606401610265565b60008181526020818152604080832033845260050190915290205460ff161561065a5760405162461bcd60e51b815260206004820152600f60248201526e105b1c9958591e48185c1c1b1a5959608a1b6044820152606401610265565b60008181526020819052604090206003810154600490910154106106b15760405162461bcd60e51b815260206004820152600e60248201526d14d8da195b59481a5cc8199d5b1b60921b6044820152606401610265565b33600081815260026020908152604080832080546001810182559084529183209091018490555183917fbf2bfac623a88eddb016297d797e84949b368ff4c0b5b4db3c10747cb9dc5d5691a350565b60016020526000908152604090208054819061071b90610fc7565b80601f016020809104026020016040519081016040528092919081815260200182805461074790610fc7565b80156107945780601f1061076957610100808354040283529160200191610794565b820191906000526020600020905b81548152906001019060200180831161077757829003601f168201915b505050600190930154919250506001600160a01b0381169060ff600160a01b9091041683565b6001600160a01b03811660009081526002602090815260409182902080548351818402810184019094528084526060939283018282801561081a57602002820191906000526020600020905b815481526020019060010190808311610806575b50505050509050919050565b3360009081526001602081905260409091200154600160a01b900460ff166108605760405162461bcd60e51b815260040161026590610f90565b6000828152602081905260409020600201546001600160a01b031633146108c35760405162461bcd60e51b81526020600482015260176024820152764e6f742074686520736368656d65206d696e697374727960481b6044820152606401610265565b6000828152602081815260408083206001600160a01b038516845260050190915290205460ff161561092a5760405162461bcd60e51b815260206004820152601060248201526f105b1c9958591e48185c1c1c9bdd995960821b6044820152606401610265565b60008281526020819052604090206003810154600490910154106109815760405162461bcd60e51b815260206004820152600e60248201526d14d8da195b59481a5cc8199d5b1b60921b6044820152606401610265565b6000828152602081815260408083206001600160a01b0385168452600581018352908320805460ff19166001179055848352908290526004018054916109c683611123565b90915550506040516001600160a01b0382169083907f72a7cfd77954406f9237b7d2f12371b163afb87259620f8a61c874ca72a8d54490600090a35050565b600060208190529081526040902080548190610a2090610fc7565b80601f0160208091040260200160405190810160405280929190818152602001828054610a4c90610fc7565b8015610a995780601f10610a6e57610100808354040283529160200191610a99565b820191906000526020600020905b815481529060010190602001808311610a7c57829003601f168201915b505050505090806001018054610aae90610fc7565b80601f0160208091040260200160405190810160405280929190818152602001828054610ada90610fc7565b8015610b275780601f10610afc57610100808354040283529160200191610b27565b820191906000526020600020905b815481529060010190602001808311610b0a57829003601f168201915b505050506002830154600384015460049094015492936001600160a01b03821693600160a01b90920460ff1692509086565b3360009081526001602081905260409091200154600160a01b900460ff16610b935760405162461bcd60e51b815260040161026590610f90565b60008342604051602001610ba892919061114a565b60408051601f1981840301815291815281516020928301206000818152928390529120909150610bd88582611050565b506000818152602081905260409020600101610bf48482611050565b5060008181526020819052604080822060028101805460ff60a01b19339081166001600160a81b031990921691909117600160a01b17909155600382018690556004909101929092555182917fdc372c4ce10c9693afac408b7824448f039de6e10fc02458b0a2b29b59ccc39091610c6d91889161116c565b60405180910390a250505050565b80356001600160a01b0381168114610c9257600080fd5b919050565b60008060408385031215610caa57600080fd5b610cb383610c7b565b946020939093013593505050565b60008060408385031215610cd457600080fd5b82359150610ce460208401610c7b565b90509250929050565b634e487b7160e01b600052604160045260246000fd5b600082601f830112610d1457600080fd5b813567ffffffffffffffff80821115610d2f57610d2f610ced565b604051601f8301601f19908116603f01168101908282118183101715610d5757610d57610ced565b81604052838152866020858801011115610d7057600080fd5b836020870160208301376000602085830101528094505050505092915050565b600060208284031215610da257600080fd5b813567ffffffffffffffff811115610db957600080fd5b610dc584828501610d03565b949350505050565b600060208284031215610ddf57600080fd5b5035919050565b60005b83811015610e01578181015183820152602001610de9565b50506000910152565b60008151808452610e22816020860160208601610de6565b601f01601f19169290920160200192915050565b60c081526000610e4960c0830189610e0a565b8281036020840152610e5b8189610e0a565b6001600160a01b0397909716604084015250509215156060840152608083019190915260a09091015292915050565b600060208284031215610e9c57600080fd5b610ea582610c7b565b9392505050565b606081526000610ebf6060830186610e0a565b6001600160a01b0394909416602083015250901515604090910152919050565b6020808252825182820181905260009190848201906040850190845b81811015610f1757835183529284019291840191600101610efb565b50909695505050505050565b600080600060608486031215610f3857600080fd5b833567ffffffffffffffff80821115610f5057600080fd5b610f5c87838801610d03565b94506020860135915080821115610f7257600080fd5b50610f7f86828701610d03565b925050604084013590509250925092565b60208082526019908201527f4e6f7420612072656769737465726564206d696e697374727900000000000000604082015260600190565b600181811c90821680610fdb57607f821691505b602082108103610ffb57634e487b7160e01b600052602260045260246000fd5b50919050565b601f82111561104b57600081815260208120601f850160051c810160208610156110285750805b601f850160051c820191505b8181101561104757828155600101611034565b5050505b505050565b815167ffffffffffffffff81111561106a5761106a610ced565b61107e816110788454610fc7565b84611001565b602080601f8311600181146110b3576000841561109b5750858301515b600019600386901b1c1916600185901b178555611047565b600085815260208120601f198616915b828110156110e2578886015182559484019460019091019084016110c3565b50858210156111005787850151600019600388901b60f8161c191681555b5050505050600190811b01905550565b602081526000610ea56020830184610e0a565b60006001820161114357634e487b7160e01b600052601160045260246000fd5b5060010190565b6000835161115c818460208801610de6565b9190910191825250602001919050565b60408152600061117f6040830185610e0a565b905060018060a01b0383166020830152939250505056fea26469706673582212204f4724c7f8e44d3901013e55ac085d4d6bf0c96892006528daa7d95aa79231d064736f6c63430008140033",
  "linkReferences": {},
  "deployedLinkReferences": {}
}