{
  "_format": "hh-sol-artifact-1",
  "contractName": "WelfareRegistry",
  "sourceName": "contracts/WelfareRegistry.sol",
  "abi": [
    {
      "inputs": [],
      "stateMutability": "nonpayable",
      "type": "constructor"
    },
    {
      "inputs": [
        {
          "internalType": "address",
          "name": "owner",
          "type": "address"
        }
      ],
      "name": "OwnableInvalidOwner",
      "type": "error"
    },
    {
      "inputs": [
        {
          "internalType": "address",
          "name": "account",
          "type": "address"
        }
      ],
      "name": "OwnableUnauthorizedAccount",
      "type": "error"
    },
    {
      "anonymous": false,
      "inputs": [
        {
          "indexed": true,
          "internalType": "address",
          "name": "beneficiary",
          "type": "address"
        }
      ],
      "name": "BeneficiaryHistoryAdded",
      "type": "event"
    },
    {
      "anonymous": false,
      "inputs": [
        {
          "indexed": true,
          "internalType": "address",
          "name": "beneficiary",
          "type": "address"
        }
      ],
      "name": "BeneficiaryInfoUpdated",
      "type": "event"
    },
    {
      "anonymous": false,
      "inputs": [
        {
          "indexed": true,
          "internalType": "address",
          "name": "beneficiary",
          "type": "address"
        }
      ],
      "name": "BeneficiaryRegistered",
      "type": "event"
    },
    {
      "anonymous": false,
      "inputs": [
        {
          "indexed": true,
          "internalType": "address",
          "name": "beneficiary",
          "type": "address"
        },
        {
          "indexed": false,
          "internalType": "bool",
          "name": "status",
          "type": "bool"
        }
      ],
      "name": "BeneficiaryStatusUpdated",
      "type": "event"
    },
    {
      "anonymous": false,
      "inputs": [
        {
          "indexed": true,
          "internalType": "address",
          "name": "ministry",
          "type": "address"
        }
      ],
      "name": "MinistryRegistered",
      "type": "event"
    },
    {
      "anonymous": false,
      "inputs": [
        {
          "indexed": true,
          "internalType": "address",
          "name": "previousOwner",
          "type": "address"
        },
        {
          "indexed": true,
          "internalType": "address",
          "name": "newOwner",
          "type": "address"
        }
      ],
      "name": "OwnershipTransferred",
      "type": "event"
    },
    {
      "inputs": [
        {
          "internalType": "address",
          "name": "beneficiary",
          "type": "address"
        },
        {
          "internalType": "string",
          "name": "program",
          "type": "string"
        },
        {
          "internalType": "uint256",
          "name": "amount",
          "type": "uint256"
        },
        {
          "internalType": "uint256",
          "name": "date",
          "type": "uint256"
        }
      ],
      "name": "addBeneficiaryHistory",
      "outputs": [],
      "stateMutability": "nonpayable",
      "type": "function"
    },
    {
      "inputs": [
        {
          "internalType": "address",
          "name": "",
          "type": "address"
        },
        {
          "internalType": "uint256",
          "name": "",
          "type": "uint256"
        }
      ],
      "name": "beneficiaryHistory",
      "outputs": [
        {
          "internalType": "string",
          "name": "program",
          "type": "string"
        },
        {
          "internalType": "uint256",
          "name": "amount",
          "type": "uint256"
        },
        {
          "internalType": "uint256",
          "name": "date",
          "type": "uint256"
        }
      ],
      "stateMutability": "view",
      "type": "function"
    },
    {
      "inputs": [
        {
          "internalType": "address",
          "name": "",
          "type": "address"
        }
      ],
      "name": "beneficiaryHistoryCount",
      "outputs": [
        {
          "internalType": "uint256",
          "name": "",
          "type": "uint256"
        }
      ],
      "stateMutability": "view",
      "type": "function"
    },
    {
      "inputs": [
        {
          "internalType": "address",
          "name": "",
          "type": "address"
        }
      ],
      "name": "beneficiaryInfo",
      "outputs": [
        {
          "internalType": "string",
          "name": "name",
          "type": "string"
        },
        {
          "internalType": "uint256",
          "name": "age",
          "type": "uint256"
        },
        {
          "internalType": "string",
          "name": "location",
          "type": "string"
        },
        {
          "internalType": "uint256",
          "name": "income",
          "type": "uint256"
        },
        {
          "internalType": "uint256",
          "name": "familySize",
          "type": "uint256"
        },
        {
          "internalType": "bool",
          "name": "isActive",
          "type": "bool"
        }
      ],
      "stateMutability": "view",
      "type": "function"
    },
    {
      "inputs": [
        {
          "internalType": "address",
          "name": "beneficiary",
          "type": "address"
        },
        {
          "internalType": "uint256",
          "name": "index",
          "type": "uint256"
        }
      ],
      "name": "getBeneficiaryHistory",
      "outputs": [
        {
          "components": [
            {
              "internalType": "string",
              "name": "program",
              "type": "string"
            },
            {
              "internalType": "uint256",
              "name": "amount",
              "type": "uint256"
            },
            {
              "internalType": "uint256",
              "name": "date",
              "type": "uint256"
            }
          ],
          "internalType": "struct WelfareRegistry.BeneficiaryHistory",
          "name": "",
          "type": "tuple"
        }
      ],
      "stateMutability": "view",
      "type": "function"
    },
    {
      "inputs": [
        {
          "internalType": "address",
          "name": "beneficiary",
          "type": "address"
        }
      ],
      "name": "getBeneficiaryHistoryCount",
      "outputs": [
        {
          "internalType": "uint256",
          "name": "",
          "type": "uint256"
        }
      ],
      "stateMutability": "view",
      "type": "function"
    },
    {
      "inputs": [
        {
          "internalType": "address",
          "name": "",
          "type": "address"
        }
      ],
      "name": "isBeneficiary",
      "outputs": [
        {
          "internalType": "bool",
          "name": "",
          "type": "bool"
        }
      ],
      "stateMutability": "view",
      "type": "function"
    },
    {
      "inputs": [
        {
          "internalType": "address",
          "name": "",
          "type": "address"
        }
      ],
      "name": "isMinistry",
      "outputs": [
        {
          "internalType": "bool",
          "name": "",
          "type": "bool"
        }
      ],
      "stateMutability": "view",
      "type": "function"
    },
    {
      "inputs": [],
      "name": "owner",
      "outputs": [
        {
          "internalType": "address",
          "name": "",
          "type": "address"
        }
      ],
      "stateMutability": "view",
      "type": "function"
    },
    {
      "inputs": [
        {
          "internalType": "address",
          "name": "beneficiary",
          "type": "address"
        }
      ],
      "name": "registerBeneficiary",
      "outputs": [],
      "stateMutability": "nonpayable",
      "type": "function"
    },
    {
      "inputs": [
        {
          "internalType": "address",
          "name": "ministry",
          "type": "address"
        }
      ],
      "name": "registerMinistry",
      "outputs": [],
      "stateMutability": "nonpayable",
      "type": "function"
    },
    {
      "inputs": [],
      "name": "renounceOwnership",
      "outputs": [],
      "stateMutability": "nonpayable",
      "type": "function"
    },
    {
      "inputs": [
        {
          "internalType": "address",
          "name": "newOwner",
          "type": "address"
        }
      ],
      "name": "transferOwnership",
      "outputs": [],
      "stateMutability": "nonpayable",
      "type": "function"
    },
    {
      "inputs": [
        {
          "internalType": "address",
          "name": "beneficiary",
          "type": "address"
        },
        {
          "internalType": "string",
          "name": "name",
          "type": "string"
        },
        {
          "internalType": "uint256",
          "name": "age",
          "type": "uint256"
        },
        {
          "internalType": "string",
          "name": "location",
          "type": "string"
        },
        {
          "internalType": "uint256",
          "name": "income",
          "type": "uint256"
        },
        {
          "internalType": "uint256",
          "name": "familySize",
          "type": "uint256"
        }
      ],
      "name": "updateBeneficiaryInfo",
      "outputs": [],
      "stateMutability": "nonpayable",
      "type": "function"
    },
    {
      "inputs": [
        {
          "internalType": "address",
          "name": "beneficiary",
          "type": "address"
        },
        {
          "internalType": "bool",
          "name": "status",
          "type": "bool"
        }
      ],
      "name": "updateBeneficiaryStatus",
      "outputs": [],
      "stateMutability": "nonpayable",
      "type": "function"
    }
  ],
  "bytecode": "0x608060405234801561001057600080fd5b50338061003757604051631e4fbdf760e01b81526000600482015260240160405180910390fd5b61004081610046565b50610096565b600080546001600160a01b038381166001600160a01b0319831681178455604051919092169283917f8be0079c531659141344cd1fd0a4f28419497f9722a3daafe3b4186f6b6457e09190a35050565b61114e806100a56000396000f3fe608060405234801561001057600080fd5b50600436106100f55760003560e01c80638da5cb5b11610097578063a40a525211610066578063a40a525214610251578063cdd8b2b214610271578063f2fde38b14610284578063f7f31d221461029757600080fd5b80638da5cb5b146101ba5780639983c36f146101d55780639d19b2261461020c5780639d79fdb21461022f57600080fd5b806367208ad6116100d357806367208ad61461015a578063715018a61461017a57806376f3347e14610182578063894c6e4d1461019557600080fd5b80633a889886146100fa5780634a7313931461010f5780635ee68a2214610122575b600080fd5b61010d610108366004610c18565b6102aa565b005b61010d61011d366004610c54565b61037c565b610145610130366004610c54565b60016020526000908152604090205460ff1681565b60405190151581526020015b60405180910390f35b61016d610168366004610c76565b61043c565b6040516101519190610ce6565b61010d6105b0565b61010d610190366004610dc5565b6105c4565b6101a86101a3366004610c54565b61070b565b60405161015196959493929190610e55565b6000546040516001600160a01b039091168152602001610151565b6101fe6101e3366004610c54565b6001600160a01b031660009081526005602052604090205490565b604051908152602001610151565b61014561021a366004610c54565b60026020526000908152604090205460ff1681565b61024261023d366004610c76565b610854565b60405161015193929190610ea1565b6101fe61025f366004610c54565b60056020526000908152604090205481565b61010d61027f366004610c54565b610923565b61010d610292366004610c54565b610a07565b61010d6102a5366004610ec6565b610a45565b3360009081526001602052604090205460ff166102e25760405162461bcd60e51b81526004016102d990610f24565b60405180910390fd5b6001600160a01b03821660009081526002602052604090205460ff1661031a5760405162461bcd60e51b81526004016102d990610f5b565b6001600160a01b038216600081815260036020908152604091829020600501805460ff191685151590811790915591519182527f11dd624c11f64dd438c72f37d0c1c16c808db0b93317f227abab80d3a4f674da910160405180910390a25050565b610384610b7f565b6001600160a01b03811660009081526001602052604090205460ff16156103ed5760405162461bcd60e51b815260206004820152601d60248201527f4164647265737320697320616c72656164792061206d696e697374727900000060448201526064016102d9565b6001600160a01b0381166000818152600160208190526040808320805460ff1916909217909155517f80bef479f448790f02e59555bd742f260a7f1e754527e2a58fed0681aef7a0d99190a250565b61046060405180606001604052806060815260200160008152602001600081525090565b6001600160a01b03831660009081526005602052604090205482106104bf5760405162461bcd60e51b8152602060048201526015602482015274092dcecc2d8d2c840d0d2e6e8dee4f240d2dcc8caf605b1b60448201526064016102d9565b6001600160a01b03831660009081526004602052604090208054839081106104e9576104e9610f92565b906000526020600020906003020160405180606001604052908160008201805461051290610fa8565b80601f016020809104026020016040519081016040528092919081815260200182805461053e90610fa8565b801561058b5780601f106105605761010080835404028352916020019161058b565b820191906000526020600020905b81548152906001019060200180831161056e57829003601f168201915b5050505050815260200160018201548152602001600282015481525050905092915050565b6105b8610b7f565b6105c26000610bac565b565b3360009081526001602052604090205460ff166105f35760405162461bcd60e51b81526004016102d990610f24565b6001600160a01b03861660009081526002602052604090205460ff1661062b5760405162461bcd60e51b81526004016102d990610f5b565b6040805160c08101825286815260208082018790528183018690526060820185905260808201849052600160a08301526001600160a01b0389166000908152600390915291909120815181906106819082611031565b5060208201516001820155604082015160028201906106a09082611031565b50606082015160038201556080820151600482015560a0909101516005909101805460ff19169115159190911790556040516001600160a01b038716907f8ffd9376e572d2cd948e8df053ce15a3c059df524bc670e3c4902812310ede1890600090a2505050505050565b60036020526000908152604090208054819061072690610fa8565b80601f016020809104026020016040519081016040528092919081815260200182805461075290610fa8565b801561079f5780601f106107745761010080835404028352916020019161079f565b820191906000526020600020905b81548152906001019060200180831161078257829003601f168201915b5050505050908060010154908060020180546107ba90610fa8565b80601f01602080910402602001604051908101604052809291908181526020018280546107e690610fa8565b80156108335780601f1061080857610100808354040283529160200191610833565b820191906000526020600020905b81548152906001019060200180831161081657829003601f168201915b50505050600383015460048401546005909401549293909290915060ff1686565b6004602052816000526040600020818154811061087057600080fd5b90600052602060002090600302016000915091505080600001805461089490610fa8565b80601f01602080910402602001604051908101604052809291908181526020018280546108c090610fa8565b801561090d5780601f106108e25761010080835404028352916020019161090d565b820191906000526020600020905b8154815290600101906020018083116108f057829003601f168201915b5050505050908060010154908060020154905083565b3360009081526001602052604090205460ff166109525760405162461bcd60e51b81526004016102d990610f24565b6001600160a01b03811660009081526002602052604090205460ff16156109bb5760405162461bcd60e51b815260206004820181905260248201527f4164647265737320697320616c726561647920612062656e656669636961727960448201526064016102d9565b6001600160a01b038116600081815260026020526040808220805460ff19166001179055517f329ad8638175cf0ec9495317a92731a014f08f8ea5ae6446aaa77bdd21a0f83c9190a250565b610a0f610b7f565b6001600160a01b038116610a3957604051631e4fbdf760e01b8152600060048201526024016102d9565b610a4281610bac565b50565b3360009081526001602052604090205460ff16610a745760405162461bcd60e51b81526004016102d990610f24565b6001600160a01b03841660009081526002602052604090205460ff16610aac5760405162461bcd60e51b81526004016102d990610f5b565b6001600160a01b038416600090815260046020908152604080832081516060810183528781528084018790529182018590528054600181018255908452919092208251600390920201908190610b029082611031565b5060208281015160018301556040928301516002909201919091556001600160a01b03861660009081526005909152908120805491610b40836110f1565b90915550506040516001600160a01b038516907f531847428c0372444c153e698bcd00fd171f4278dee278891b7d38f56d4b3ace90600090a250505050565b6000546001600160a01b031633146105c25760405163118cdaa760e01b81523360048201526024016102d9565b600080546001600160a01b038381166001600160a01b0319831681178455604051919092169283917f8be0079c531659141344cd1fd0a4f28419497f9722a3daafe3b4186f6b6457e09190a35050565b80356001600160a01b0381168114610c1357600080fd5b919050565b60008060408385031215610c2b57600080fd5b610c3483610bfc565b915060208301358015158114610c4957600080fd5b809150509250929050565b600060208284031215610c6657600080fd5b610c6f82610bfc565b9392505050565b60008060408385031215610c8957600080fd5b610c9283610bfc565b946020939093013593505050565b6000815180845260005b81811015610cc657602081850181015186830182015201610caa565b506000602082860101526020601f19601f83011685010191505092915050565b602081526000825160606020840152610d026080840182610ca0565b905060208401516040840152604084015160608401528091505092915050565b634e487b7160e01b600052604160045260246000fd5b600082601f830112610d4957600080fd5b813567ffffffffffffffff80821115610d6457610d64610d22565b604051601f8301601f19908116603f01168101908282118183101715610d8c57610d8c610d22565b81604052838152866020858801011115610da557600080fd5b836020870160208301376000602085830101528094505050505092915050565b60008060008060008060c08789031215610dde57600080fd5b610de787610bfc565b9550602087013567ffffffffffffffff80821115610e0457600080fd5b610e108a838b01610d38565b9650604089013595506060890135915080821115610e2d57600080fd5b50610e3a89828a01610d38565b9350506080870135915060a087013590509295509295509295565b60c081526000610e6860c0830189610ca0565b8760208401528281036040840152610e808188610ca0565b606084019690965250506080810192909252151560a0909101529392505050565b606081526000610eb46060830186610ca0565b60208301949094525060400152919050565b60008060008060808587031215610edc57600080fd5b610ee585610bfc565b9350602085013567ffffffffffffffff811115610f0157600080fd5b610f0d87828801610d38565b949794965050505060408301359260600135919050565b60208082526018908201527f43616c6c6572206973206e6f742061206d696e69737472790000000000000000604082015260600190565b6020808252601c908201527f41646472657373206973206e6f7420612062656e656669636961727900000000604082015260600190565b634e487b7160e01b600052603260045260246000fd5b600181811c90821680610fbc57607f821691505b602082108103610fdc57634e487b7160e01b600052602260045260246000fd5b50919050565b601f82111561102c57600081815260208120601f850160051c810160208610156110095750805b601f850160051c820191505b8181101561102857828155600101611015565b5050505b505050565b815167ffffffffffffffff81111561104b5761104b610d22565b61105f816110598454610fa8565b84610fe2565b602080601f831160018114611094576000841561107c5750858301515b600019600386901b1c1916600185901b178555611028565b600085815260208120601f198616915b828110156110c3578886015182559484019460019091019084016110a4565b50858210156110e15787850151600019600388901b60f8161c191681555b5050505050600190811b01905550565b60006001820161111157634e487b7160e01b600052601160045260246000fd5b506001019056fea26469706673582212208258d3fd8dd85af0cd43e380f6979281a51fe32e7265cceace66c7ef6cfd35ab64736f6c63430008140033",
  "linkReferences": {},
  "deployedLinkReferences": {}
}